{
  "address": "0xD7014C3Fa871dfdd01E6924914fA2855d336d088",
  "abi": [
    {
      "anonymous": false,
      "inputs": [
        {
          "indexed": true,
          "internalType": "uint256",
          "name": "id",
          "type": "uint256"
        },
        {
          "indexed": false,
          "internalType": "address",
          "name": "seller",
          "type": "address"
        },
        {
          "indexed": false,
          "internalType": "address",
          "name": "nftContract",
          "type": "address"
        },
        {
          "indexed": false,
          "internalType": "uint256",
          "name": "tokenId",
          "type": "uint256"
        },
        {
          "indexed": false,
          "internalType": "uint64",
          "name": "biddingEnds",
          "type": "uint64"
        },
        {
          "indexed": false,
          "internalType": "bool",
          "name": "encrypted",
          "type": "bool"
        }
      ],
      "name": "AuctionCreated",
      "type": "event"
    },
    {
      "anonymous": false,
      "inputs": [
        {
          "indexed": true,
          "internalType": "uint256",
          "name": "id",
          "type": "uint256"
        },
        {
          "indexed": false,
          "internalType": "address",
          "name": "winner",
          "type": "address"
        },
        {
          "indexed": false,
          "internalType": "uint256",
          "name": "amount",
          "type": "uint256"
        }
      ],
      "name": "AuctionFinalized",
      "type": "event"
    },
    {
      "anonymous": false,
      "inputs": [
        {
          "indexed": true,
          "internalType": "uint256",
          "name": "id",
          "type": "uint256"
        },
        {
          "indexed": true,
          "internalType": "address",
          "name": "bidder",
          "type": "address"
        },
        {
          "indexed": false,
          "internalType": "uint256",
          "name": "amount",
          "type": "uint256"
        }
      ],
      "name": "BidPlaced",
      "type": "event"
    },
    {
      "anonymous": false,
      "inputs": [
        {
          "indexed": true,
          "internalType": "uint256",
          "name": "id",
          "type": "uint256"
        },
        {
          "indexed": true,
          "internalType": "address",
          "name": "bidder",
          "type": "address"
        },
        {
          "indexed": false,
          "internalType": "uint256",
          "name": "deposit",
          "type": "uint256"
        }
      ],
      "name": "EncryptedBidSubmitted",
      "type": "event"
    },
    {
      "anonymous": false,
      "inputs": [
        {
          "indexed": true,
          "internalType": "address",
          "name": "previousOwner",
          "type": "address"
        },
        {
          "indexed": true,
          "internalType": "address",
          "name": "newOwner",
          "type": "address"
        }
      ],
      "name": "OwnershipTransferred",
      "type": "event"
    },
    {
      "anonymous": false,
      "inputs": [
        {
          "indexed": true,
          "internalType": "uint256",
          "name": "id",
          "type": "uint256"
        },
        {
          "indexed": true,
          "internalType": "address",
          "name": "to",
          "type": "address"
        },
        {
          "indexed": false,
          "internalType": "uint256",
          "name": "amount",
          "type": "uint256"
        }
      ],
      "name": "RefundIssued",
      "type": "event"
    },
    {
      "inputs": [
        {
          "internalType": "uint256",
          "name": "",
          "type": "uint256"
        }
      ],
      "name": "auctions",
      "outputs": [
        {
          "internalType": "address",
          "name": "seller",
          "type": "address"
        },
        {
          "internalType": "address",
          "name": "nftContract",
          "type": "address"
        },
        {
          "internalType": "uint256",
          "name": "tokenId",
          "type": "uint256"
        },
        {
          "internalType": "address",
          "name": "stableToken",
          "type": "address"
        },
        {
          "internalType": "uint64",
          "name": "biddingEnds",
          "type": "uint64"
        },
        {
          "internalType": "bool",
          "name": "finalized",
          "type": "bool"
        },
        {
          "internalType": "bool",
          "name": "usesEncrypted",
          "type": "bool"
        },
        {
          "internalType": "uint256",
          "name": "minDeposit",
          "type": "uint256"
        },
        {
          "internalType": "address",
          "name": "winner",
          "type": "address"
        }
      ],
      "stateMutability": "view",
      "type": "function"
    },
    {
      "inputs": [
        {
          "internalType": "uint256",
          "name": "",
          "type": "uint256"
        },
        {
          "internalType": "uint256",
          "name": "",
          "type": "uint256"
        }
      ],
      "name": "bidders",
      "outputs": [
        {
          "internalType": "address",
          "name": "",
          "type": "address"
        }
      ],
      "stateMutability": "view",
      "type": "function"
    },
    {
      "inputs": [
        {
          "internalType": "uint256",
          "name": "",
          "type": "uint256"
        },
        {
          "internalType": "address",
          "name": "",
          "type": "address"
        }
      ],
      "name": "bids",
      "outputs": [
        {
          "internalType": "uint256",
          "name": "",
          "type": "uint256"
        }
      ],
      "stateMutability": "view",
      "type": "function"
    },
    {
      "inputs": [
        {
          "internalType": "address",
          "name": "nftContract",
          "type": "address"
        },
        {
          "internalType": "uint256",
          "name": "tokenId",
          "type": "uint256"
        },
        {
          "internalType": "address",
          "name": "stableToken",
          "type": "address"
        },
        {
          "internalType": "uint64",
          "name": "biddingEnds",
          "type": "uint64"
        },
        {
          "internalType": "bool",
          "name": "usesEncrypted",
          "type": "bool"
        },
        {
          "internalType": "uint256",
          "name": "minDeposit",
          "type": "uint256"
        }
      ],
      "name": "createAuction",
      "outputs": [
        {
          "internalType": "uint256",
          "name": "",
          "type": "uint256"
        }
      ],
      "stateMutability": "nonpayable",
      "type": "function"
    },
    {
      "inputs": [
        {
          "internalType": "uint256",
          "name": "",
          "type": "uint256"
        },
        {
          "internalType": "uint256",
          "name": "",
          "type": "uint256"
        }
      ],
      "name": "encryptedBids",
      "outputs": [
        {
          "internalType": "bytes",
          "name": "ciphertext",
          "type": "bytes"
        },
        {
          "internalType": "address",
          "name": "bidder",
          "type": "address"
        },
        {
          "internalType": "uint256",
          "name": "deposit",
          "type": "uint256"
        }
      ],
      "stateMutability": "view",
      "type": "function"
    },
    {
      "inputs": [
        {
          "internalType": "uint256",
          "name": "auctionId",
          "type": "uint256"
        },
        {
          "internalType": "address",
          "name": "winner",
          "type": "address"
        },
        {
          "internalType": "uint256",
          "name": "winningAmount",
          "type": "uint256"
        },
        {
          "internalType": "bytes",
          "name": "proof",
          "type": "bytes"
        }
      ],
      "name": "finalizeWithProof",
      "outputs": [],
      "stateMutability": "nonpayable",
      "type": "function"
    },
    {
      "inputs": [],
      "name": "nextAuction",
      "outputs": [
        {
          "internalType": "uint256",
          "name": "",
          "type": "uint256"
        }
      ],
      "stateMutability": "view",
      "type": "function"
    },
    {
      "inputs": [],
      "name": "owner",
      "outputs": [
        {
          "internalType": "address",
          "name": "",
          "type": "address"
        }
      ],
      "stateMutability": "view",
      "type": "function"
    },
    {
      "inputs": [
        {
          "internalType": "uint256",
          "name": "auctionId",
          "type": "uint256"
        },
        {
          "internalType": "uint256",
          "name": "amount",
          "type": "uint256"
        }
      ],
      "name": "placeBid",
      "outputs": [],
      "stateMutability": "nonpayable",
      "type": "function"
    },
    {
      "inputs": [
        {
          "internalType": "uint256",
          "name": "auctionId",
          "type": "uint256"
        }
      ],
      "name": "refundLosers",
      "outputs": [],
      "stateMutability": "nonpayable",
      "type": "function"
    },
    {
      "inputs": [],
      "name": "renounceOwnership",
      "outputs": [],
      "stateMutability": "nonpayable",
      "type": "function"
    },
    {
      "inputs": [
        {
          "internalType": "uint256",
          "name": "auctionId",
          "type": "uint256"
        },
        {
          "internalType": "bytes",
          "name": "ciphertext",
          "type": "bytes"
        },
        {
          "internalType": "uint256",
          "name": "depositAmount",
          "type": "uint256"
        }
      ],
      "name": "submitEncryptedBid",
      "outputs": [],
      "stateMutability": "nonpayable",
      "type": "function"
    },
    {
      "inputs": [
        {
          "internalType": "address",
          "name": "newOwner",
          "type": "address"
        }
      ],
      "name": "transferOwnership",
      "outputs": [],
      "stateMutability": "nonpayable",
      "type": "function"
    }
  ],
  "transactionHash": "0x2dd4c1f50b7936db59158e537bb59946a46cc1f8643568a01f095d4a9a703c79",
  "args": [],
  "numDeployments": 1,
  "solcInputHash": "3937efdd9bb7beac8cd25136a5a20a9a",
  "bytecode": "0x6080604052348015600f57600080fd5b506001600055601c336020565b6072565b600180546001600160a01b038381166001600160a01b0319831681179093556040519116919082907f8be0079c531659141344cd1fd0a4f28419497f9722a3daafe3b4186f6b6457e090600090a35050565b611b97806100816000396000f3fe608060405234801561001057600080fd5b50600436106100cf5760003560e01c8063720abfc31161008c5780638e93f9fb116100665780638e93f9fb1461027d57806392cb068114610290578063d1c11205146102a3578063f2fde38b146102b657600080fd5b8063720abfc3146102325780637e803dae146102455780638da5cb5b1461025857600080fd5b80633f1ffcec146100d45780634fbe2e7b14610112578063571a26a01461013457806357c90de51461020c5780636347a37714610221578063715018a61461022a575b600080fd5b6100ff6100e23660046116c1565b600460209081526000928352604080842090915290825290205481565b6040519081526020015b60405180910390f35b6101256101203660046116ed565b6102c9565b6040516101099392919061175f565b6101af61014236600461178d565b60036020819052600091825260409091208054600182015460028301549383015460048401546005909401546001600160a01b0393841695928416949293828116936001600160401b03600160a01b8504169360ff600160e01b8204811694600160e81b90920416921689565b604080516001600160a01b039a8b168152988a1660208a015288019690965293871660608701526001600160401b039092166080860152151560a0850152151560c084015260e08301529190911661010082015261012001610109565b61021f61021a3660046116ed565b6103a2565b005b6100ff60025481565b61021f61059f565b61021f61024036600461178d565b6105b3565b61021f6102533660046117ee565b61080d565b6001546001600160a01b03165b6040516001600160a01b039091168152602001610109565b6100ff61028b36600461184e565b610a39565b61021f61029e3660046118c6565b610d5f565b6102656102b13660046116ed565b6111ba565b61021f6102c436600461192d565b6111f2565b600660205281600052604060002081815481106102e557600080fd5b9060005260206000209060030201600091509150508060000180546103099061194f565b80601f01602080910402602001604051908101604052809291908181526020018280546103359061194f565b80156103825780601f1061035757610100808354040283529160200191610382565b820191906000526020600020905b81548152906001019060200180831161036557829003601f168201915b50505050600183015460029093015491926001600160a01b031691905083565b6103aa611268565b600082815260036020819052604090912090810154600160e81b900460ff161561041b5760405162461bcd60e51b815260206004820152601960248201527f61756374696f6e20697320656e63727970746564206d6f64650000000000000060448201526064015b60405180910390fd5b6003810154600160a01b90046001600160401b0316421061046f5760405162461bcd60e51b815260206004820152600e60248201526d189a59191a5b99c818db1bdcd95960921b6044820152606401610412565b600082116104aa5760405162461bcd60e51b81526020600482015260086024820152671e995c9bc8189a5960c21b6044820152606401610412565b600083815260046020908152604080832033845290915281205490036104f95760008381526005602090815260408220805460018101825590835291200180546001600160a01b031916331790555b6003810154610513906001600160a01b03163330856112c1565b60008381526004602090815260408083203384529091528120805484929061053c90849061199f565b90915550506000838152600460209081526040808320338085529083529281902054905190815285917f0e54eff26401bf69b81b26f60bd85ef47f5d85275c1d268d84f68d6897431c47910160405180910390a35061059b6001600055565b5050565b6105a761132c565b6105b16000611386565b565b6105bb611268565b600081815260036020819052604090912090810154600160e01b900460ff166106165760405162461bcd60e51b815260206004820152600d60248201526c1b9bdd08199a5b985b1a5e9959609a1b6044820152606401610412565b6003810154600160e81b900460ff161561070557600082815260066020526040812054905b818110156106fe576000848152600660205260408120805483908110610663576106636119b8565b9060005260206000209060030201905060008160020154905060008111156106f45760006002830155600182015460038601546106ad916001600160a01b039182169116836113d8565b60018201546040518281526001600160a01b039091169087907f7a482fdeb6bc9a1376f597068a214a7a39472bb2eff1b8cad21ba04f49ddca1b9060200160405180910390a35b505060010161063b565b50506107ff565b600082815260056020526040812054905b818110156107fc57600084815260056020526040812080548390811061073e5761073e6119b8565b60009182526020808320909101548783526004825260408084206001600160a01b039092168085529190925291205490915080156107f25760008681526004602090815260408083206001600160a01b038087168552925282209190915560038601546107ad911683836113d8565b816001600160a01b0316867f7a482fdeb6bc9a1376f597068a214a7a39472bb2eff1b8cad21ba04f49ddca1b836040516107e991815260200190565b60405180910390a35b5050600101610716565b50505b5061080a6001600055565b50565b610815611268565b600084815260036020819052604090912090810154600160e81b900460ff166108785760405162461bcd60e51b8152602060048201526015602482015274185d58dd1a5bdb881b9bdd08195b98dc9e5c1d1959605a1b6044820152606401610412565b6003810154600160a01b90046001600160401b031642106108cc5760405162461bcd60e51b815260206004820152600e60248201526d189a59191a5b99c818db1bdcd95960921b6044820152606401610412565b80600401548210156109145760405162461bcd60e51b815260206004820152601160248201527019195c1bdcda5d081d1bdbc81cdb585b1b607a1b6044820152606401610412565b600381015461092e906001600160a01b03163330856112c1565b60066000868152602001908152602001600020604051806060016040528086868080601f016020809104026020016040519081016040528093929190818152602001838380828437600092018290525093855250503360208085019190915260409093018790525083546001810185559381522081519192600302019081906109b79082611a2b565b5060208201516001820180546001600160a01b039092166001600160a01b031990921691909117905560409182015160029091015551339086907feab3dbd265b4117aa3d918ffbcea2108c14cd89f4e4a259de16cb60ef075af9c90610a209086815260200190565b60405180910390a350610a336001600055565b50505050565b6000610a43611268565b42846001600160401b031611610a905760405162461bcd60e51b8152602060048201526012602482015271656e64206d7573742062652066757475726560701b6044820152606401610412565b6002805460009182610aa183611ae9565b919050559050604051806101200160405280336001600160a01b03168152602001896001600160a01b03168152602001888152602001876001600160a01b03168152602001866001600160401b03168152602001600015158152602001851515815260200184815260200160006001600160a01b03168152506003600083815260200190815260200160002060008201518160000160006101000a8154816001600160a01b0302191690836001600160a01b0316021790555060208201518160010160006101000a8154816001600160a01b0302191690836001600160a01b031602179055506040820151816002015560608201518160030160006101000a8154816001600160a01b0302191690836001600160a01b0316021790555060808201518160030160146101000a8154816001600160401b0302191690836001600160401b0316021790555060a082015181600301601c6101000a81548160ff02191690831515021790555060c082015181600301601d6101000a81548160ff02191690831515021790555060e082015181600401556101008201518160050160006101000a8154816001600160a01b0302191690836001600160a01b03160217905550905050876001600160a01b03166323b872dd33308a6040518463ffffffff1660e01b8152600401610cb5939291906001600160a01b039384168152919092166020820152604081019190915260600190565b600060405180830381600087803b158015610ccf57600080fd5b505af1158015610ce3573d6000803e3d6000fd5b5050604080513381526001600160a01b038c1660208201529081018a90526001600160401b038816606082015286151560808201528392507f41cd39c8b39d28e9e92c26316840bd9e02b53d82d147d08754e36f075b82d355915060a00160405180910390a29050610d556001600055565b9695505050505050565b610d67611268565b600085815260036020819052604090912090810154600160a01b90046001600160401b0316421015610dcf5760405162461bcd60e51b8152602060048201526011602482015270189a59191a5b99c81b9bdd08195b991959607a1b6044820152606401610412565b6003810154600160e01b900460ff1615610e1f5760405162461bcd60e51b8152602060048201526011602482015270185b1c9958591e48199a5b985b1a5e9959607a1b6044820152606401610412565b610e2c868686868661140d565b610e685760405162461bcd60e51b815260206004820152600d60248201526c34b73b30b634b210383937b7b360991b6044820152606401610412565b6003810154600090600160e81b900460ff1615610ff65760008781526006602052604081205490600019815b83811015610efe5760008b815260066020526040902080546001600160a01b038c16919083908110610ec857610ec86119b8565b60009182526020909120600160039092020101546001600160a01b031603610ef65760019250809150610efe565b600101610e94565b5081610f4c5760405162461bcd60e51b815260206004820152601860248201527f77696e6e6572206465706f736974206e6f7420666f756e6400000000000000006044820152606401610412565b60008a8152600660205260408120805483908110610f6c57610f6c6119b8565b906000526020600020906003020190508881600201541015610fd05760405162461bcd60e51b815260206004820152601b60248201527f77696e6e6572206465706f73697420696e73756666696369656e7400000000006044820152606401610412565b88816002016000828254610fe49190611b02565b909155508995506110a5945050505050565b60008781526004602090815260408083206001600160a01b038a168452909152902054858110156110695760405162461bcd60e51b815260206004820152601760248201527f77696e6e65722062696420696e73756666696369656e740000000000000000006044820152606401610412565b60008881526004602090815260408083206001600160a01b038b1684529091528120805488929061109b908490611b02565b9091555086925050505b815460038301546110c3916001600160a01b039182169116836113d8565b600182015460028301546040516323b872dd60e01b81523060048201526001600160a01b03898116602483015260448201929092529116906323b872dd90606401600060405180830381600087803b15801561111e57600080fd5b505af1158015611132573d6000803e3d6000fd5b5050505060038201805460ff60e01b1916600160e01b1790556005820180546001600160a01b0388166001600160a01b03199091168117909155604080519182526020820183905288917f4d9113a1377d665eaa1f9168a9c9080f2e488cb820b10149de3d6d2e0f2780c7910160405180910390a250506111b36001600055565b5050505050565b600560205281600052604060002081815481106111d657600080fd5b6000918252602090912001546001600160a01b03169150829050565b6111fa61132c565b6001600160a01b03811661125f5760405162461bcd60e51b815260206004820152602660248201527f4f776e61626c653a206e6577206f776e657220697320746865207a65726f206160448201526564647265737360d01b6064820152608401610412565b61080a81611386565b6002600054036112ba5760405162461bcd60e51b815260206004820152601f60248201527f5265656e7472616e637947756172643a207265656e7472616e742063616c6c006044820152606401610412565b6002600055565b6040516001600160a01b0380851660248301528316604482015260648101829052610a339085906323b872dd60e01b906084015b60408051601f198184030181529190526020810180516001600160e01b03166001600160e01b031990931692909217909152611440565b6001546001600160a01b031633146105b15760405162461bcd60e51b815260206004820181905260248201527f4f776e61626c653a2063616c6c6572206973206e6f7420746865206f776e65726044820152606401610412565b600180546001600160a01b038381166001600160a01b0319831681179093556040519116919082907f8be0079c531659141344cd1fd0a4f28419497f9722a3daafe3b4186f6b6457e090600090a35050565b6040516001600160a01b03831660248201526044810182905261140890849063a9059cbb60e01b906064016112f5565b505050565b60006114216001546001600160a01b031690565b6001600160a01b0316336001600160a01b031614905095945050505050565b6000611495826040518060400160405280602081526020017f5361666545524332303a206c6f772d6c6576656c2063616c6c206661696c6564815250856001600160a01b03166115159092919063ffffffff16565b90508051600014806114b65750808060200190518101906114b69190611b15565b6114085760405162461bcd60e51b815260206004820152602a60248201527f5361666545524332303a204552433230206f7065726174696f6e20646964206e6044820152691bdd081cdd58d8d9595960b21b6064820152608401610412565b6060611524848460008561152c565b949350505050565b60608247101561158d5760405162461bcd60e51b815260206004820152602660248201527f416464726573733a20696e73756666696369656e742062616c616e636520666f6044820152651c8818d85b1b60d21b6064820152608401610412565b600080866001600160a01b031685876040516115a99190611b32565b60006040518083038185875af1925050503d80600081146115e6576040519150601f19603f3d011682016040523d82523d6000602084013e6115eb565b606091505b50915091506115fc87838387611607565b979650505050505050565b6060831561167657825160000361166f576001600160a01b0385163b61166f5760405162461bcd60e51b815260206004820152601d60248201527f416464726573733a2063616c6c20746f206e6f6e2d636f6e74726163740000006044820152606401610412565b5081611524565b611524838381511561168b5781518083602001fd5b8060405162461bcd60e51b81526004016104129190611b4e565b80356001600160a01b03811681146116bc57600080fd5b919050565b600080604083850312156116d457600080fd5b823591506116e4602084016116a5565b90509250929050565b6000806040838503121561170057600080fd5b50508035926020909101359150565b60005b8381101561172a578181015183820152602001611712565b50506000910152565b6000815180845261174b81602086016020860161170f565b601f01601f19169290920160200192915050565b6060815260006117726060830186611733565b6001600160a01b039490941660208301525060400152919050565b60006020828403121561179f57600080fd5b5035919050565b60008083601f8401126117b857600080fd5b5081356001600160401b038111156117cf57600080fd5b6020830191508360208285010111156117e757600080fd5b9250929050565b6000806000806060858703121561180457600080fd5b8435935060208501356001600160401b0381111561182157600080fd5b61182d878288016117a6565b9598909750949560400135949350505050565b801515811461080a57600080fd5b60008060008060008060c0878903121561186757600080fd5b611870876116a5565b955060208701359450611885604088016116a5565b935060608701356001600160401b03811681146118a157600080fd5b925060808701356118b181611840565b9598949750929591949360a090920135925050565b6000806000806000608086880312156118de57600080fd5b853594506118ee602087016116a5565b93506040860135925060608601356001600160401b0381111561191057600080fd5b61191c888289016117a6565b969995985093965092949392505050565b60006020828403121561193f57600080fd5b611948826116a5565b9392505050565b600181811c9082168061196357607f821691505b60208210810361198357634e487b7160e01b600052602260045260246000fd5b50919050565b634e487b7160e01b600052601160045260246000fd5b808201808211156119b2576119b2611989565b92915050565b634e487b7160e01b600052603260045260246000fd5b634e487b7160e01b600052604160045260246000fd5b601f82111561140857806000526020600020601f840160051c81016020851015611a0b5750805b601f840160051c820191505b818110156111b35760008155600101611a17565b81516001600160401b03811115611a4457611a446119ce565b611a5881611a52845461194f565b846119e4565b6020601f821160018114611a8c5760008315611a745750848201515b600019600385901b1c1916600184901b1784556111b3565b600084815260208120601f198516915b82811015611abc5787850151825560209485019460019092019101611a9c565b5084821015611ada5786840151600019600387901b60f8161c191681555b50505050600190811b01905550565b600060018201611afb57611afb611989565b5060010190565b818103818111156119b2576119b2611989565b600060208284031215611b2757600080fd5b815161194881611840565b60008251611b4481846020870161170f565b9190910192915050565b602081526000611948602083018461173356fea2646970667358221220ce94da47c7d7cf639be88fdf484177d9468d3ffa593237586c2dc5fdfb5f709b64736f6c634300081c0033",
  "devdoc": {
    "kind": "dev",
    "methods": {
      "owner()": {
        "details": "Returns the address of the current owner."
      },
      "renounceOwnership()": {
        "details": "Leaves the contract without owner. It will not be possible to call `onlyOwner` functions. Can only be called by the current owner. NOTE: Renouncing ownership will leave the contract without an owner, thereby disabling any functionality that is only available to the owner."
      },
      "transferOwnership(address)": {
        "details": "Transfers ownership of the contract to a new account (`newOwner`). Can only be called by the current owner."
      }
    },
    "version": 1
  },
  "userdoc": {
    "kind": "user",
    "methods": {},
    "version": 1
  },
  "storageLayout": {
    "storage": [
      {
        "astId": 169,
        "contract": "contracts/AuctionManager.sol:AuctionManager",
        "label": "_status",
        "offset": 0,
        "slot": "0",
        "type": "t_uint256"
      },
      {
        "astId": 53,
        "contract": "contracts/AuctionManager.sol:AuctionManager",
        "label": "_owner",
        "offset": 0,
        "slot": "1",
        "type": "t_address"
      },
      {
        "astId": 4135,
        "contract": "contracts/AuctionManager.sol:AuctionManager",
        "label": "nextAuction",
        "offset": 0,
        "slot": "2",
        "type": "t_uint256"
      },
      {
        "astId": 4140,
        "contract": "contracts/AuctionManager.sol:AuctionManager",
        "label": "auctions",
        "offset": 0,
        "slot": "3",
        "type": "t_mapping(t_uint256,t_struct(Auction)4126_storage)"
      },
      {
        "astId": 4146,
        "contract": "contracts/AuctionManager.sol:AuctionManager",
        "label": "bids",
        "offset": 0,
        "slot": "4",
        "type": "t_mapping(t_uint256,t_mapping(t_address,t_uint256))"
      },
      {
        "astId": 4151,
        "contract": "contracts/AuctionManager.sol:AuctionManager",
        "label": "bidders",
        "offset": 0,
        "slot": "5",
        "type": "t_mapping(t_uint256,t_array(t_address)dyn_storage)"
      },
      {
        "astId": 4157,
        "contract": "contracts/AuctionManager.sol:AuctionManager",
        "label": "encryptedBids",
        "offset": 0,
        "slot": "6",
        "type": "t_mapping(t_uint256,t_array(t_struct(EncryptedEntry)4133_storage)dyn_storage)"
      }
    ],
    "types": {
      "t_address": {
        "encoding": "inplace",
        "label": "address",
        "numberOfBytes": "20"
      },
      "t_array(t_address)dyn_storage": {
        "base": "t_address",
        "encoding": "dynamic_array",
        "label": "address[]",
        "numberOfBytes": "32"
      },
      "t_array(t_struct(EncryptedEntry)4133_storage)dyn_storage": {
        "base": "t_struct(EncryptedEntry)4133_storage",
        "encoding": "dynamic_array",
        "label": "struct AuctionManager.EncryptedEntry[]",
        "numberOfBytes": "32"
      },
      "t_bool": {
        "encoding": "inplace",
        "label": "bool",
        "numberOfBytes": "1"
      },
      "t_bytes_storage": {
        "encoding": "bytes",
        "label": "bytes",
        "numberOfBytes": "32"
      },
      "t_mapping(t_address,t_uint256)": {
        "encoding": "mapping",
        "key": "t_address",
        "label": "mapping(address => uint256)",
        "numberOfBytes": "32",
        "value": "t_uint256"
      },
      "t_mapping(t_uint256,t_array(t_address)dyn_storage)": {
        "encoding": "mapping",
        "key": "t_uint256",
        "label": "mapping(uint256 => address[])",
        "numberOfBytes": "32",
        "value": "t_array(t_address)dyn_storage"
      },
      "t_mapping(t_uint256,t_array(t_struct(EncryptedEntry)4133_storage)dyn_storage)": {
        "encoding": "mapping",
        "key": "t_uint256",
        "label": "mapping(uint256 => struct AuctionManager.EncryptedEntry[])",
        "numberOfBytes": "32",
        "value": "t_array(t_struct(EncryptedEntry)4133_storage)dyn_storage"
      },
      "t_mapping(t_uint256,t_mapping(t_address,t_uint256))": {
        "encoding": "mapping",
        "key": "t_uint256",
        "label": "mapping(uint256 => mapping(address => uint256))",
        "numberOfBytes": "32",
        "value": "t_mapping(t_address,t_uint256)"
      },
      "t_mapping(t_uint256,t_struct(Auction)4126_storage)": {
        "encoding": "mapping",
        "key": "t_uint256",
        "label": "mapping(uint256 => struct AuctionManager.Auction)",
        "numberOfBytes": "32",
        "value": "t_struct(Auction)4126_storage"
      },
      "t_struct(Auction)4126_storage": {
        "encoding": "inplace",
        "label": "struct AuctionManager.Auction",
        "members": [
          {
            "astId": 4109,
            "contract": "contracts/AuctionManager.sol:AuctionManager",
            "label": "seller",
            "offset": 0,
            "slot": "0",
            "type": "t_address"
          },
          {
            "astId": 4111,
            "contract": "contracts/AuctionManager.sol:AuctionManager",
            "label": "nftContract",
            "offset": 0,
            "slot": "1",
            "type": "t_address"
          },
          {
            "astId": 4113,
            "contract": "contracts/AuctionManager.sol:AuctionManager",
            "label": "tokenId",
            "offset": 0,
            "slot": "2",
            "type": "t_uint256"
          },
          {
            "astId": 4115,
            "contract": "contracts/AuctionManager.sol:AuctionManager",
            "label": "stableToken",
            "offset": 0,
            "slot": "3",
            "type": "t_address"
          },
          {
            "astId": 4117,
            "contract": "contracts/AuctionManager.sol:AuctionManager",
            "label": "biddingEnds",
            "offset": 20,
            "slot": "3",
            "type": "t_uint64"
          },
          {
            "astId": 4119,
            "contract": "contracts/AuctionManager.sol:AuctionManager",
            "label": "finalized",
            "offset": 28,
            "slot": "3",
            "type": "t_bool"
          },
          {
            "astId": 4121,
            "contract": "contracts/AuctionManager.sol:AuctionManager",
            "label": "usesEncrypted",
            "offset": 29,
            "slot": "3",
            "type": "t_bool"
          },
          {
            "astId": 4123,
            "contract": "contracts/AuctionManager.sol:AuctionManager",
            "label": "minDeposit",
            "offset": 0,
            "slot": "4",
            "type": "t_uint256"
          },
          {
            "astId": 4125,
            "contract": "contracts/AuctionManager.sol:AuctionManager",
            "label": "winner",
            "offset": 0,
            "slot": "5",
            "type": "t_address"
          }
        ],
        "numberOfBytes": "192"
      },
      "t_struct(EncryptedEntry)4133_storage": {
        "encoding": "inplace",
        "label": "struct AuctionManager.EncryptedEntry",
        "members": [
          {
            "astId": 4128,
            "contract": "contracts/AuctionManager.sol:AuctionManager",
            "label": "ciphertext",
            "offset": 0,
            "slot": "0",
            "type": "t_bytes_storage"
          },
          {
            "astId": 4130,
            "contract": "contracts/AuctionManager.sol:AuctionManager",
            "label": "bidder",
            "offset": 0,
            "slot": "1",
            "type": "t_address"
          },
          {
            "astId": 4132,
            "contract": "contracts/AuctionManager.sol:AuctionManager",
            "label": "deposit",
            "offset": 0,
            "slot": "2",
            "type": "t_uint256"
          }
        ],
        "numberOfBytes": "96"
      },
      "t_uint256": {
        "encoding": "inplace",
        "label": "uint256",
        "numberOfBytes": "32"
      },
      "t_uint64": {
        "encoding": "inplace",
        "label": "uint64",
        "numberOfBytes": "8"
      }
    }
  }
}