{
  "address": "0x18cFb0e7d1dC60effF4bC65f206D11A8e488F179",
  "abi": [
    {
      "inputs": [
        {
          "internalType": "address",
          "name": "_initialFeeRecipient",
          "type": "address"
        },
        {
          "internalType": "uint256",
          "name": "_initialFeeBps",
          "type": "uint256"
        }
      ],
      "stateMutability": "nonpayable",
      "type": "constructor"
    },
    {
      "anonymous": false,
      "inputs": [
        {
          "indexed": true,
          "internalType": "uint256",
          "name": "id",
          "type": "uint256"
        }
      ],
      "name": "AuctionCancelled",
      "type": "event"
    },
    {
      "anonymous": false,
      "inputs": [
        {
          "indexed": true,
          "internalType": "uint256",
          "name": "id",
          "type": "uint256"
        },
        {
          "indexed": false,
          "internalType": "address",
          "name": "seller",
          "type": "address"
        },
        {
          "indexed": false,
          "internalType": "address",
          "name": "nftContract",
          "type": "address"
        },
        {
          "indexed": false,
          "internalType": "uint256",
          "name": "tokenId",
          "type": "uint256"
        },
        {
          "indexed": false,
          "internalType": "uint64",
          "name": "biddingEnds",
          "type": "uint64"
        },
        {
          "indexed": false,
          "internalType": "bool",
          "name": "encrypted",
          "type": "bool"
        }
      ],
      "name": "AuctionCreated",
      "type": "event"
    },
    {
      "anonymous": false,
      "inputs": [
        {
          "indexed": true,
          "internalType": "uint256",
          "name": "id",
          "type": "uint256"
        },
        {
          "indexed": false,
          "internalType": "address",
          "name": "winner",
          "type": "address"
        },
        {
          "indexed": false,
          "internalType": "uint256",
          "name": "amount",
          "type": "uint256"
        },
        {
          "indexed": false,
          "internalType": "uint256",
          "name": "fee",
          "type": "uint256"
        }
      ],
      "name": "AuctionFinalized",
      "type": "event"
    },
    {
      "anonymous": false,
      "inputs": [
        {
          "indexed": true,
          "internalType": "uint256",
          "name": "id",
          "type": "uint256"
        },
        {
          "indexed": true,
          "internalType": "address",
          "name": "bidder",
          "type": "address"
        },
        {
          "indexed": false,
          "internalType": "uint256",
          "name": "amount",
          "type": "uint256"
        }
      ],
      "name": "BidPlaced",
      "type": "event"
    },
    {
      "anonymous": false,
      "inputs": [
        {
          "indexed": true,
          "internalType": "uint256",
          "name": "id",
          "type": "uint256"
        },
        {
          "indexed": true,
          "internalType": "address",
          "name": "bidder",
          "type": "address"
        },
        {
          "indexed": false,
          "internalType": "uint256",
          "name": "deposit",
          "type": "uint256"
        }
      ],
      "name": "EncryptedBidSubmitted",
      "type": "event"
    },
    {
      "anonymous": false,
      "inputs": [
        {
          "indexed": false,
          "internalType": "uint256",
          "name": "newFeeBps",
          "type": "uint256"
        }
      ],
      "name": "FeeBpsChanged",
      "type": "event"
    },
    {
      "anonymous": false,
      "inputs": [
        {
          "indexed": false,
          "internalType": "address",
          "name": "newRecipient",
          "type": "address"
        }
      ],
      "name": "FeeRecipientChanged",
      "type": "event"
    },
    {
      "anonymous": false,
      "inputs": [
        {
          "indexed": true,
          "internalType": "address",
          "name": "previousOwner",
          "type": "address"
        },
        {
          "indexed": true,
          "internalType": "address",
          "name": "newOwner",
          "type": "address"
        }
      ],
      "name": "OwnershipTransferred",
      "type": "event"
    },
    {
      "anonymous": false,
      "inputs": [
        {
          "indexed": true,
          "internalType": "uint256",
          "name": "id",
          "type": "uint256"
        },
        {
          "indexed": true,
          "internalType": "address",
          "name": "to",
          "type": "address"
        },
        {
          "indexed": false,
          "internalType": "uint256",
          "name": "amount",
          "type": "uint256"
        }
      ],
      "name": "RefundIssued",
      "type": "event"
    },
    {
      "inputs": [],
      "name": "BPS",
      "outputs": [
        {
          "internalType": "uint256",
          "name": "",
          "type": "uint256"
        }
      ],
      "stateMutability": "view",
      "type": "function"
    },
    {
      "inputs": [
        {
          "internalType": "uint256",
          "name": "",
          "type": "uint256"
        }
      ],
      "name": "auctions",
      "outputs": [
        {
          "internalType": "address",
          "name": "seller",
          "type": "address"
        },
        {
          "internalType": "address",
          "name": "nftContract",
          "type": "address"
        },
        {
          "internalType": "uint256",
          "name": "tokenId",
          "type": "uint256"
        },
        {
          "internalType": "address",
          "name": "stableToken",
          "type": "address"
        },
        {
          "internalType": "uint64",
          "name": "biddingEnds",
          "type": "uint64"
        },
        {
          "internalType": "bool",
          "name": "finalized",
          "type": "bool"
        },
        {
          "internalType": "bool",
          "name": "usesEncrypted",
          "type": "bool"
        },
        {
          "internalType": "uint256",
          "name": "minDeposit",
          "type": "uint256"
        },
        {
          "internalType": "address",
          "name": "winner",
          "type": "address"
        },
        {
          "internalType": "uint256",
          "name": "bidCount",
          "type": "uint256"
        }
      ],
      "stateMutability": "view",
      "type": "function"
    },
    {
      "inputs": [
        {
          "internalType": "uint256",
          "name": "",
          "type": "uint256"
        },
        {
          "internalType": "uint256",
          "name": "",
          "type": "uint256"
        }
      ],
      "name": "bidders",
      "outputs": [
        {
          "internalType": "address",
          "name": "",
          "type": "address"
        }
      ],
      "stateMutability": "view",
      "type": "function"
    },
    {
      "inputs": [
        {
          "internalType": "uint256",
          "name": "",
          "type": "uint256"
        },
        {
          "internalType": "address",
          "name": "",
          "type": "address"
        }
      ],
      "name": "bids",
      "outputs": [
        {
          "internalType": "uint256",
          "name": "",
          "type": "uint256"
        }
      ],
      "stateMutability": "view",
      "type": "function"
    },
    {
      "inputs": [
        {
          "internalType": "uint256",
          "name": "auctionId",
          "type": "uint256"
        }
      ],
      "name": "cancelAuction",
      "outputs": [],
      "stateMutability": "nonpayable",
      "type": "function"
    },
    {
      "inputs": [
        {
          "internalType": "address",
          "name": "nftContract",
          "type": "address"
        },
        {
          "internalType": "uint256",
          "name": "tokenId",
          "type": "uint256"
        },
        {
          "internalType": "address",
          "name": "stableToken",
          "type": "address"
        },
        {
          "internalType": "uint64",
          "name": "biddingEnds",
          "type": "uint64"
        },
        {
          "internalType": "bool",
          "name": "usesEncrypted",
          "type": "bool"
        },
        {
          "internalType": "uint256",
          "name": "minDeposit",
          "type": "uint256"
        }
      ],
      "name": "createAuction",
      "outputs": [
        {
          "internalType": "uint256",
          "name": "",
          "type": "uint256"
        }
      ],
      "stateMutability": "nonpayable",
      "type": "function"
    },
    {
      "inputs": [
        {
          "internalType": "uint256",
          "name": "",
          "type": "uint256"
        },
        {
          "internalType": "uint256",
          "name": "",
          "type": "uint256"
        }
      ],
      "name": "encryptedBids",
      "outputs": [
        {
          "internalType": "bytes",
          "name": "ciphertext",
          "type": "bytes"
        },
        {
          "internalType": "address",
          "name": "bidder",
          "type": "address"
        },
        {
          "internalType": "uint256",
          "name": "deposit",
          "type": "uint256"
        }
      ],
      "stateMutability": "view",
      "type": "function"
    },
    {
      "inputs": [],
      "name": "feeBps",
      "outputs": [
        {
          "internalType": "uint256",
          "name": "",
          "type": "uint256"
        }
      ],
      "stateMutability": "view",
      "type": "function"
    },
    {
      "inputs": [],
      "name": "feeRecipient",
      "outputs": [
        {
          "internalType": "address",
          "name": "",
          "type": "address"
        }
      ],
      "stateMutability": "view",
      "type": "function"
    },
    {
      "inputs": [
        {
          "internalType": "uint256",
          "name": "auctionId",
          "type": "uint256"
        },
        {
          "internalType": "address",
          "name": "winner",
          "type": "address"
        },
        {
          "internalType": "uint256",
          "name": "winningAmount",
          "type": "uint256"
        },
        {
          "internalType": "bytes",
          "name": "proof",
          "type": "bytes"
        }
      ],
      "name": "finalizeWithProof",
      "outputs": [],
      "stateMutability": "nonpayable",
      "type": "function"
    },
    {
      "inputs": [],
      "name": "nextAuction",
      "outputs": [
        {
          "internalType": "uint256",
          "name": "",
          "type": "uint256"
        }
      ],
      "stateMutability": "view",
      "type": "function"
    },
    {
      "inputs": [],
      "name": "owner",
      "outputs": [
        {
          "internalType": "address",
          "name": "",
          "type": "address"
        }
      ],
      "stateMutability": "view",
      "type": "function"
    },
    {
      "inputs": [
        {
          "internalType": "uint256",
          "name": "auctionId",
          "type": "uint256"
        },
        {
          "internalType": "uint256",
          "name": "amount",
          "type": "uint256"
        }
      ],
      "name": "placeBid",
      "outputs": [],
      "stateMutability": "nonpayable",
      "type": "function"
    },
    {
      "inputs": [
        {
          "internalType": "uint256",
          "name": "auctionId",
          "type": "uint256"
        }
      ],
      "name": "refundLosers",
      "outputs": [],
      "stateMutability": "nonpayable",
      "type": "function"
    },
    {
      "inputs": [],
      "name": "renounceOwnership",
      "outputs": [],
      "stateMutability": "nonpayable",
      "type": "function"
    },
    {
      "inputs": [
        {
          "internalType": "uint256",
          "name": "_newFeeBps",
          "type": "uint256"
        }
      ],
      "name": "setFeeBps",
      "outputs": [],
      "stateMutability": "nonpayable",
      "type": "function"
    },
    {
      "inputs": [
        {
          "internalType": "address",
          "name": "_newRecipient",
          "type": "address"
        }
      ],
      "name": "setFeeRecipient",
      "outputs": [],
      "stateMutability": "nonpayable",
      "type": "function"
    },
    {
      "inputs": [
        {
          "internalType": "uint256",
          "name": "auctionId",
          "type": "uint256"
        },
        {
          "internalType": "bytes",
          "name": "ciphertext",
          "type": "bytes"
        },
        {
          "internalType": "uint256",
          "name": "depositAmount",
          "type": "uint256"
        }
      ],
      "name": "submitEncryptedBid",
      "outputs": [],
      "stateMutability": "nonpayable",
      "type": "function"
    },
    {
      "inputs": [
        {
          "internalType": "address",
          "name": "newOwner",
          "type": "address"
        }
      ],
      "name": "transferOwnership",
      "outputs": [],
      "stateMutability": "nonpayable",
      "type": "function"
    }
  ],
  "transactionHash": "0x13becaec862ccf2b04f41ad1ac10804ad685a8a003b5af46ae61bdec85822a09",
  "args": [
    "0x126F314e83683Ff89d1d8CBc1dF5462AA83C011d",
    250
  ],
  "numDeployments": 1,
  "solcInputHash": "04cc9bf0a3b4c06fddec8a3640ca2b14",
  "bytecode": "0x608060405234801561001057600080fd5b5060405161208438038061208483398101604081905261002f91610154565b600160005561003d33610102565b6001600160a01b0382166100985760405162461bcd60e51b815260206004820181905260248201527f526563697069656e742063616e6e6f74206265207a65726f206164647265737360448201526064015b60405180910390fd5b6103e88111156100d95760405162461bcd60e51b815260206004820152600c60248201526b08ccaca40e8dede40d0d2ced60a31b604482015260640161008f565b600280546001600160a01b0319166001600160a01b03939093169290921790915560035561018e565b600180546001600160a01b038381166001600160a01b0319831681179093556040519116919082907f8be0079c531659141344cd1fd0a4f28419497f9722a3daafe3b4186f6b6457e090600090a35050565b6000806040838503121561016757600080fd5b82516001600160a01b038116811461017e57600080fd5b6020939093015192949293505050565b611ee78061019d6000396000f3fe608060405234801561001057600080fd5b50600436106101215760003560e01c8063720abfc3116100ad57806392cb06811161007157806392cb06811461032f57806396b5a75514610342578063d1c1120514610355578063e74b981b14610368578063f2fde38b1461037b57600080fd5b8063720abfc3146102d257806372c27b62146102e55780637e803dae146102f85780638da5cb5b1461030b5780638e93f9fb1461031c57600080fd5b80634fbe2e7b116100f45780634fbe2e7b146101a1578063571a26a0146101c357806357c90de5146102ac5780636347a377146102c1578063715018a6146102ca57600080fd5b8063249d39e91461012657806324a9d853146101425780633f1ffcec1461014b5780634690484014610176575b600080fd5b61012f61271081565b6040519081526020015b60405180910390f35b61012f60035481565b61012f6101593660046119b4565b600660209081526000928352604080842090915290825290205481565b600254610189906001600160a01b031681565b6040516001600160a01b039091168152602001610139565b6101b46101af3660046119e0565b61038e565b60405161013993929190611a52565b6102456101d1366004611a80565b600560208190526000918252604090912080546001820154600283015460038401546004850154958501546006909501546001600160a01b0394851696938516959294828116946001600160401b03600160a01b8504169460ff600160e01b8604811695600160e81b90041693919216908a565b604080516001600160a01b039b8c168152998b1660208b015289019790975294881660608801526001600160401b03909316608087015290151560a0860152151560c085015260e08401529290921661010082015261012081019190915261014001610139565b6102bf6102ba3660046119e0565b610467565b005b61012f60045481565b6102bf610679565b6102bf6102e0366004611a80565b61068d565b6102bf6102f3366004611a80565b610860565b6102bf610306366004611ae1565b6108e5565b6001546001600160a01b0316610189565b61012f61032a366004611b41565b610b26565b6102bf61033d366004611bb9565b610e3f565b6102bf610350366004611a80565b61120f565b6101896103633660046119e0565b611414565b6102bf610376366004611c20565b61144c565b6102bf610389366004611c20565b6114f8565b600860205281600052604060002081815481106103aa57600080fd5b9060005260206000209060030201600091509150508060000180546103ce90611c42565b80601f01602080910402602001604051908101604052809291908181526020018280546103fa90611c42565b80156104475780601f1061041c57610100808354040283529160200191610447565b820191906000526020600020905b81548152906001019060200180831161042a57829003601f168201915b50505050600183015460029093015491926001600160a01b031691905083565b61046f61156e565b60008281526005602052604090206003810154600160e81b900460ff16156104de5760405162461bcd60e51b815260206004820152601960248201527f61756374696f6e20697320656e63727970746564206d6f64650000000000000060448201526064015b60405180910390fd5b6003810154600160a01b90046001600160401b031642106105325760405162461bcd60e51b815260206004820152600e60248201526d189a59191a5b99c818db1bdcd95960921b60448201526064016104d5565b6000821161056d5760405162461bcd60e51b81526020600482015260086024820152671e995c9bc8189a5960c21b60448201526064016104d5565b600083815260066020908152604080832033845290915281205490036105bc5760008381526007602090815260408220805460018101825590835291200180546001600160a01b031916331790555b60038101546105d6906001600160a01b03163330856115c7565b6000838152600660209081526040808320338452909152812080548492906105ff908490611c92565b909155505060068101805490600061061683611cab565b90915550506000838152600660209081526040808320338085529083529281902054905190815285917f0e54eff26401bf69b81b26f60bd85ef47f5d85275c1d268d84f68d6897431c47910160405180910390a3506106756001600055565b5050565b61068161161f565b61068b6000611679565b565b61069561156e565b60008181526005602052604090206003810154600160e01b900460ff166106ee5760405162461bcd60e51b815260206004820152600d60248201526c1b9bdd08199a5b985b1a5e9959609a1b60448201526064016104d5565b6003810154600160e81b900460ff16156107595760405162461bcd60e51b815260206004820152602660248201527f456e6372797074656420726566756e64206c6f676963206e6f7420696d706c656044820152651b595b9d195960d21b60648201526084016104d5565b600082815260076020526040812054905b8181101561085057600084815260076020526040812080548390811061079257610792611cc4565b60009182526020808320909101548783526006825260408084206001600160a01b039092168085529190925291205490915080156108465760008681526006602090815260408083206001600160a01b03808716855292528220919091556003860154610801911683836116cb565b816001600160a01b0316867f7a482fdeb6bc9a1376f597068a214a7a39472bb2eff1b8cad21ba04f49ddca1b8360405161083d91815260200190565b60405180910390a35b505060010161076a565b50505061085d6001600055565b50565b61086861161f565b6103e88111156108a95760405162461bcd60e51b815260206004820152600c60248201526b0a8c2f040e8dede40d0d2ced60a31b60448201526064016104d5565b60038190556040518181527f3bd6271cb468e808f81b31b8a5edb1e7a7cbf075b1b075e40ecb51fd0135d738906020015b60405180910390a150565b6108ed61156e565b60008481526005602052604090206003810154600160e81b900460ff1661094e5760405162461bcd60e51b8152602060048201526015602482015274185d58dd1a5bdb881b9bdd08195b98dc9e5c1d1959605a1b60448201526064016104d5565b6003810154600160a01b90046001600160401b031642106109a25760405162461bcd60e51b815260206004820152600e60248201526d189a59191a5b99c818db1bdcd95960921b60448201526064016104d5565b80600401548210156109ea5760405162461bcd60e51b815260206004820152601160248201527019195c1bdcda5d081d1bdbc81cdb585b1b607a1b60448201526064016104d5565b6003810154610a04906001600160a01b03163330856115c7565b600681018054906000610a1683611cab565b919050555060086000868152602001908152602001600020604051806060016040528086868080601f01602080910402602001604051908101604052809392919081815260200183838082843760009201829052509385525050336020808501919091526040909301879052508354600181018555938152208151919260030201908190610aa49082611d37565b5060208201516001820180546001600160a01b039092166001600160a01b031990921691909117905560409182015160029091015551339086907feab3dbd265b4117aa3d918ffbcea2108c14cd89f4e4a259de16cb60ef075af9c90610b0d9086815260200190565b60405180910390a350610b206001600055565b50505050565b6000610b3061156e565b42846001600160401b031611610b7d5760405162461bcd60e51b8152602060048201526012602482015271656e64206d7573742062652066757475726560701b60448201526064016104d5565b6004805460009182610b8e83611cab565b919050559050604051806101400160405280336001600160a01b03168152602001896001600160a01b03168152602001888152602001876001600160a01b03168152602001866001600160401b03168152602001600015158152602001851515815260200184815260200160006001600160a01b0316815260200160008152506005600083815260200190815260200160002060008201518160000160006101000a8154816001600160a01b0302191690836001600160a01b0316021790555060208201518160010160006101000a8154816001600160a01b0302191690836001600160a01b031602179055506040820151816002015560608201518160030160006101000a8154816001600160a01b0302191690836001600160a01b0316021790555060808201518160030160146101000a8154816001600160401b0302191690836001600160401b0316021790555060a082015181600301601c6101000a81548160ff02191690831515021790555060c082015181600301601d6101000a81548160ff02191690831515021790555060e082015181600401556101008201518160050160006101000a8154816001600160a01b0302191690836001600160a01b031602179055506101208201518160060155905050876001600160a01b03166323b872dd33308a6040518463ffffffff1660e01b8152600401610d9593929190611df5565b600060405180830381600087803b158015610daf57600080fd5b505af1158015610dc3573d6000803e3d6000fd5b5050604080513381526001600160a01b038c1660208201529081018a90526001600160401b038816606082015286151560808201528392507f41cd39c8b39d28e9e92c26316840bd9e02b53d82d147d08754e36f075b82d355915060a00160405180910390a29050610e356001600055565b9695505050505050565b610e4761156e565b60008581526005602052604090206003810154600160a01b90046001600160401b0316421015610ead5760405162461bcd60e51b8152602060048201526011602482015270189a59191a5b99c81b9bdd08195b991959607a1b60448201526064016104d5565b6003810154600160e01b900460ff1615610efd5760405162461bcd60e51b8152602060048201526011602482015270185b1c9958591e48199a5b985b1a5e9959607a1b60448201526064016104d5565b6000816006015411610f425760405162461bcd60e51b815260206004820152600e60248201526d139bc8189a591cc81c1b1858d95960921b60448201526064016104d5565b610f4f8686868686611700565b610f8b5760405162461bcd60e51b815260206004820152600d60248201526c34b73b30b634b210383937b7b360991b60448201526064016104d5565b6003810154600090600160e81b900460ff1615610fff5760405162461bcd60e51b815260206004820152602c60248201527f456e637279707465642066696e616c697a6174696f6e206c6f676963206e6f7460448201526b081a5b5c1b195b595b9d195960a21b60648201526084016104d5565b60008781526006602090815260408083206001600160a01b038a168452909152902054858110156110725760405162461bcd60e51b815260206004820152601760248201527f77696e6e65722062696420696e73756666696369656e7400000000000000000060448201526064016104d5565b61107c8682611e19565b60008981526006602090815260408083206001600160a01b038c168452909152902055508490506003546000908290156110f957612710600354846110c19190611e2c565b6110cb9190611e43565b91506110d78284611e19565b60025460038601549192506110f9916001600160a01b039081169116846116cb565b83546003850154611117916001600160a01b039182169116836116cb565b600184015460028501546040516323b872dd60e01b81526001600160a01b03909216916323b872dd916111509130918d91600401611df5565b600060405180830381600087803b15801561116a57600080fd5b505af115801561117e573d6000803e3d6000fd5b5050505060038401805460ff60e01b1916600160e01b1790556005840180546001600160a01b038a166001600160a01b031990911681179091556040805191825260208201859052810183905289907f8fe48cb2788518c502edabdec52a7efc6f23c59ea723e715f57d5fb39990b3269060600160405180910390a2505050506112086001600055565b5050505050565b61121761156e565b60008181526005602052604090206003810154600160a01b90046001600160401b031642101561127d5760405162461bcd60e51b8152602060048201526011602482015270189a59191a5b99c81b9bdd08195b991959607a1b60448201526064016104d5565b6003810154600160e01b900460ff16156112cd5760405162461bcd60e51b8152602060048201526011602482015270185b1c9958591e48199a5b985b1a5e9959607a1b60448201526064016104d5565b80546001600160a01b031633146113135760405162461bcd60e51b815260206004820152600a6024820152692737ba1039b2b63632b960b11b60448201526064016104d5565b6006810154156113585760405162461bcd60e51b815260206004820152601060248201526f41756374696f6e20686173206269647360801b60448201526064016104d5565b60038101805460ff60e01b1916600160e01b1790556001810154815460028301546040516323b872dd60e01b81526001600160a01b03938416936323b872dd936113ac933093919092169190600401611df5565b600060405180830381600087803b1580156113c657600080fd5b505af11580156113da573d6000803e3d6000fd5b50506040518492507f2809c7e17bf978fbc7194c0a694b638c4215e9140cacc6c38ca36010b45697df9150600090a25061085d6001600055565b6007602052816000526040600020818154811061143057600080fd5b6000918252602090912001546001600160a01b03169150829050565b61145461161f565b6001600160a01b0381166114aa5760405162461bcd60e51b815260206004820181905260248201527f526563697069656e742063616e6e6f74206265207a65726f206164647265737360448201526064016104d5565b600280546001600160a01b0319166001600160a01b0383169081179091556040519081527f167cccccc6e9b2892a740ec13fc1e51d3de8ea384f25bd87fee7412d588637e2906020016108da565b61150061161f565b6001600160a01b0381166115655760405162461bcd60e51b815260206004820152602660248201527f4f776e61626c653a206e6577206f776e657220697320746865207a65726f206160448201526564647265737360d01b60648201526084016104d5565b61085d81611679565b6002600054036115c05760405162461bcd60e51b815260206004820152601f60248201527f5265656e7472616e637947756172643a207265656e7472616e742063616c6c0060448201526064016104d5565b6002600055565b610b20846323b872dd60e01b8585856040516024016115e893929190611df5565b60408051601f198184030181529190526020810180516001600160e01b03166001600160e01b031990931692909217909152611733565b6001546001600160a01b0316331461068b5760405162461bcd60e51b815260206004820181905260248201527f4f776e61626c653a2063616c6c6572206973206e6f7420746865206f776e657260448201526064016104d5565b600180546001600160a01b038381166001600160a01b0319831681179093556040519116919082907f8be0079c531659141344cd1fd0a4f28419497f9722a3daafe3b4186f6b6457e090600090a35050565b6040516001600160a01b0383166024820152604481018290526116fb90849063a9059cbb60e01b906064016115e8565b505050565b60006117146001546001600160a01b031690565b6001600160a01b0316336001600160a01b031614905095945050505050565b6000611788826040518060400160405280602081526020017f5361666545524332303a206c6f772d6c6576656c2063616c6c206661696c6564815250856001600160a01b03166118089092919063ffffffff16565b90508051600014806117a95750808060200190518101906117a99190611e65565b6116fb5760405162461bcd60e51b815260206004820152602a60248201527f5361666545524332303a204552433230206f7065726174696f6e20646964206e6044820152691bdd081cdd58d8d9595960b21b60648201526084016104d5565b6060611817848460008561181f565b949350505050565b6060824710156118805760405162461bcd60e51b815260206004820152602660248201527f416464726573733a20696e73756666696369656e742062616c616e636520666f6044820152651c8818d85b1b60d21b60648201526084016104d5565b600080866001600160a01b0316858760405161189c9190611e82565b60006040518083038185875af1925050503d80600081146118d9576040519150601f19603f3d011682016040523d82523d6000602084013e6118de565b606091505b50915091506118ef878383876118fa565b979650505050505050565b60608315611969578251600003611962576001600160a01b0385163b6119625760405162461bcd60e51b815260206004820152601d60248201527f416464726573733a2063616c6c20746f206e6f6e2d636f6e747261637400000060448201526064016104d5565b5081611817565b611817838381511561197e5781518083602001fd5b8060405162461bcd60e51b81526004016104d59190611e9e565b80356001600160a01b03811681146119af57600080fd5b919050565b600080604083850312156119c757600080fd5b823591506119d760208401611998565b90509250929050565b600080604083850312156119f357600080fd5b50508035926020909101359150565b60005b83811015611a1d578181015183820152602001611a05565b50506000910152565b60008151808452611a3e816020860160208601611a02565b601f01601f19169290920160200192915050565b606081526000611a656060830186611a26565b6001600160a01b039490941660208301525060400152919050565b600060208284031215611a9257600080fd5b5035919050565b60008083601f840112611aab57600080fd5b5081356001600160401b03811115611ac257600080fd5b602083019150836020828501011115611ada57600080fd5b9250929050565b60008060008060608587031215611af757600080fd5b8435935060208501356001600160401b03811115611b1457600080fd5b611b2087828801611a99565b9598909750949560400135949350505050565b801515811461085d57600080fd5b60008060008060008060c08789031215611b5a57600080fd5b611b6387611998565b955060208701359450611b7860408801611998565b935060608701356001600160401b0381168114611b9457600080fd5b92506080870135611ba481611b33565b9598949750929591949360a090920135925050565b600080600080600060808688031215611bd157600080fd5b85359450611be160208701611998565b93506040860135925060608601356001600160401b03811115611c0357600080fd5b611c0f88828901611a99565b969995985093965092949392505050565b600060208284031215611c3257600080fd5b611c3b82611998565b9392505050565b600181811c90821680611c5657607f821691505b602082108103611c7657634e487b7160e01b600052602260045260246000fd5b50919050565b634e487b7160e01b600052601160045260246000fd5b80820180821115611ca557611ca5611c7c565b92915050565b600060018201611cbd57611cbd611c7c565b5060010190565b634e487b7160e01b600052603260045260246000fd5b634e487b7160e01b600052604160045260246000fd5b601f8211156116fb57806000526020600020601f840160051c81016020851015611d175750805b601f840160051c820191505b818110156112085760008155600101611d23565b81516001600160401b03811115611d5057611d50611cda565b611d6481611d5e8454611c42565b84611cf0565b6020601f821160018114611d985760008315611d805750848201515b600019600385901b1c1916600184901b178455611208565b600084815260208120601f198516915b82811015611dc85787850151825560209485019460019092019101611da8565b5084821015611de65786840151600019600387901b60f8161c191681555b50505050600190811b01905550565b6001600160a01b039384168152919092166020820152604081019190915260600190565b81810381811115611ca557611ca5611c7c565b8082028115828204841417611ca557611ca5611c7c565b600082611e6057634e487b7160e01b600052601260045260246000fd5b500490565b600060208284031215611e7757600080fd5b8151611c3b81611b33565b60008251611e94818460208701611a02565b9190910192915050565b602081526000611c3b6020830184611a2656fea2646970667358221220e445e9e58638670b3fef1564b8f2e2c38e596d42efac1dd467c506fb7ffbb8a964736f6c634300081c0033",
  "devdoc": {
    "kind": "dev",
    "methods": {
      "cancelAuction(uint256)": {
        "details": "Allows the seller to cancel and retrieve their NFT ONLY IF the auction has ended AND no bids were placed."
      },
      "constructor": {
        "params": {
          "_initialFeeBps": "The initial platform fee (e.g., 250 for 2.5%).",
          "_initialFeeRecipient": "The address of the treasury that will receive fees."
        }
      },
      "createAuction(address,uint256,address,uint64,bool,uint256)": {
        "details": "Creates a new auction for an ERC721 token. The seller must have approved this contract to transfer the NFT."
      },
      "finalizeWithProof(uint256,address,uint256,bytes)": {
        "details": "Finalizes an auction, paying the seller and fee recipient. Requires a 'proof' which, in this stub, is just an owner check."
      },
      "owner()": {
        "details": "Returns the address of the current owner."
      },
      "placeBid(uint256,uint256)": {
        "details": "Places a simple plaintext bid. The bidder must have approved this contract to transfer the stableToken."
      },
      "refundLosers(uint256)": {
        "details": "Refunds all losing bids and any remaining deposit from the winner."
      },
      "renounceOwnership()": {
        "details": "Leaves the contract without owner. It will not be possible to call `onlyOwner` functions. Can only be called by the current owner. NOTE: Renouncing ownership will leave the contract without an owner, thereby disabling any functionality that is only available to the owner."
      },
      "setFeeBps(uint256)": {
        "details": "Sets the platform fee (in BPS). Only owner.",
        "params": {
          "_newFeeBps": "The new fee, e.g., 250 for 2.5%."
        }
      },
      "setFeeRecipient(address)": {
        "details": "Sets the new treasury address that receives fees. Only owner."
      },
      "submitEncryptedBid(uint256,bytes,uint256)": {
        "details": "Submits an encrypted bid and a deposit (for FHE). The bidder must approve the stableToken deposit."
      },
      "transferOwnership(address)": {
        "details": "Transfers ownership of the contract to a new account (`newOwner`). Can only be called by the current owner."
      }
    },
    "version": 1
  },
  "userdoc": {
    "kind": "user",
    "methods": {},
    "version": 1
  },
  "storageLayout": {
    "storage": [
      {
        "astId": 39106,
        "contract": "contracts/AuctionManager.sol:AuctionManager",
        "label": "_status",
        "offset": 0,
        "slot": "0",
        "type": "t_uint256"
      },
      {
        "astId": 38990,
        "contract": "contracts/AuctionManager.sol:AuctionManager",
        "label": "_owner",
        "offset": 0,
        "slot": "1",
        "type": "t_address"
      },
      {
        "astId": 43046,
        "contract": "contracts/AuctionManager.sol:AuctionManager",
        "label": "feeRecipient",
        "offset": 0,
        "slot": "2",
        "type": "t_address"
      },
      {
        "astId": 43048,
        "contract": "contracts/AuctionManager.sol:AuctionManager",
        "label": "feeBps",
        "offset": 0,
        "slot": "3",
        "type": "t_uint256"
      },
      {
        "astId": 43053,
        "contract": "contracts/AuctionManager.sol:AuctionManager",
        "label": "nextAuction",
        "offset": 0,
        "slot": "4",
        "type": "t_uint256"
      },
      {
        "astId": 43086,
        "contract": "contracts/AuctionManager.sol:AuctionManager",
        "label": "auctions",
        "offset": 0,
        "slot": "5",
        "type": "t_mapping(t_uint256,t_struct(Auction)43074_storage)"
      },
      {
        "astId": 43092,
        "contract": "contracts/AuctionManager.sol:AuctionManager",
        "label": "bids",
        "offset": 0,
        "slot": "6",
        "type": "t_mapping(t_uint256,t_mapping(t_address,t_uint256))"
      },
      {
        "astId": 43097,
        "contract": "contracts/AuctionManager.sol:AuctionManager",
        "label": "bidders",
        "offset": 0,
        "slot": "7",
        "type": "t_mapping(t_uint256,t_array(t_address)dyn_storage)"
      },
      {
        "astId": 43103,
        "contract": "contracts/AuctionManager.sol:AuctionManager",
        "label": "encryptedBids",
        "offset": 0,
        "slot": "8",
        "type": "t_mapping(t_uint256,t_array(t_struct(EncryptedEntry)43081_storage)dyn_storage)"
      }
    ],
    "types": {
      "t_address": {
        "encoding": "inplace",
        "label": "address",
        "numberOfBytes": "20"
      },
      "t_array(t_address)dyn_storage": {
        "base": "t_address",
        "encoding": "dynamic_array",
        "label": "address[]",
        "numberOfBytes": "32"
      },
      "t_array(t_struct(EncryptedEntry)43081_storage)dyn_storage": {
        "base": "t_struct(EncryptedEntry)43081_storage",
        "encoding": "dynamic_array",
        "label": "struct AuctionManager.EncryptedEntry[]",
        "numberOfBytes": "32"
      },
      "t_bool": {
        "encoding": "inplace",
        "label": "bool",
        "numberOfBytes": "1"
      },
      "t_bytes_storage": {
        "encoding": "bytes",
        "label": "bytes",
        "numberOfBytes": "32"
      },
      "t_mapping(t_address,t_uint256)": {
        "encoding": "mapping",
        "key": "t_address",
        "label": "mapping(address => uint256)",
        "numberOfBytes": "32",
        "value": "t_uint256"
      },
      "t_mapping(t_uint256,t_array(t_address)dyn_storage)": {
        "encoding": "mapping",
        "key": "t_uint256",
        "label": "mapping(uint256 => address[])",
        "numberOfBytes": "32",
        "value": "t_array(t_address)dyn_storage"
      },
      "t_mapping(t_uint256,t_array(t_struct(EncryptedEntry)43081_storage)dyn_storage)": {
        "encoding": "mapping",
        "key": "t_uint256",
        "label": "mapping(uint256 => struct AuctionManager.EncryptedEntry[])",
        "numberOfBytes": "32",
        "value": "t_array(t_struct(EncryptedEntry)43081_storage)dyn_storage"
      },
      "t_mapping(t_uint256,t_mapping(t_address,t_uint256))": {
        "encoding": "mapping",
        "key": "t_uint256",
        "label": "mapping(uint256 => mapping(address => uint256))",
        "numberOfBytes": "32",
        "value": "t_mapping(t_address,t_uint256)"
      },
      "t_mapping(t_uint256,t_struct(Auction)43074_storage)": {
        "encoding": "mapping",
        "key": "t_uint256",
        "label": "mapping(uint256 => struct AuctionManager.Auction)",
        "numberOfBytes": "32",
        "value": "t_struct(Auction)43074_storage"
      },
      "t_struct(Auction)43074_storage": {
        "encoding": "inplace",
        "label": "struct AuctionManager.Auction",
        "members": [
          {
            "astId": 43055,
            "contract": "contracts/AuctionManager.sol:AuctionManager",
            "label": "seller",
            "offset": 0,
            "slot": "0",
            "type": "t_address"
          },
          {
            "astId": 43057,
            "contract": "contracts/AuctionManager.sol:AuctionManager",
            "label": "nftContract",
            "offset": 0,
            "slot": "1",
            "type": "t_address"
          },
          {
            "astId": 43059,
            "contract": "contracts/AuctionManager.sol:AuctionManager",
            "label": "tokenId",
            "offset": 0,
            "slot": "2",
            "type": "t_uint256"
          },
          {
            "astId": 43061,
            "contract": "contracts/AuctionManager.sol:AuctionManager",
            "label": "stableToken",
            "offset": 0,
            "slot": "3",
            "type": "t_address"
          },
          {
            "astId": 43063,
            "contract": "contracts/AuctionManager.sol:AuctionManager",
            "label": "biddingEnds",
            "offset": 20,
            "slot": "3",
            "type": "t_uint64"
          },
          {
            "astId": 43065,
            "contract": "contracts/AuctionManager.sol:AuctionManager",
            "label": "finalized",
            "offset": 28,
            "slot": "3",
            "type": "t_bool"
          },
          {
            "astId": 43067,
            "contract": "contracts/AuctionManager.sol:AuctionManager",
            "label": "usesEncrypted",
            "offset": 29,
            "slot": "3",
            "type": "t_bool"
          },
          {
            "astId": 43069,
            "contract": "contracts/AuctionManager.sol:AuctionManager",
            "label": "minDeposit",
            "offset": 0,
            "slot": "4",
            "type": "t_uint256"
          },
          {
            "astId": 43071,
            "contract": "contracts/AuctionManager.sol:AuctionManager",
            "label": "winner",
            "offset": 0,
            "slot": "5",
            "type": "t_address"
          },
          {
            "astId": 43073,
            "contract": "contracts/AuctionManager.sol:AuctionManager",
            "label": "bidCount",
            "offset": 0,
            "slot": "6",
            "type": "t_uint256"
          }
        ],
        "numberOfBytes": "224"
      },
      "t_struct(EncryptedEntry)43081_storage": {
        "encoding": "inplace",
        "label": "struct AuctionManager.EncryptedEntry",
        "members": [
          {
            "astId": 43076,
            "contract": "contracts/AuctionManager.sol:AuctionManager",
            "label": "ciphertext",
            "offset": 0,
            "slot": "0",
            "type": "t_bytes_storage"
          },
          {
            "astId": 43078,
            "contract": "contracts/AuctionManager.sol:AuctionManager",
            "label": "bidder",
            "offset": 0,
            "slot": "1",
            "type": "t_address"
          },
          {
            "astId": 43080,
            "contract": "contracts/AuctionManager.sol:AuctionManager",
            "label": "deposit",
            "offset": 0,
            "slot": "2",
            "type": "t_uint256"
          }
        ],
        "numberOfBytes": "96"
      },
      "t_uint256": {
        "encoding": "inplace",
        "label": "uint256",
        "numberOfBytes": "32"
      },
      "t_uint64": {
        "encoding": "inplace",
        "label": "uint64",
        "numberOfBytes": "8"
      }
    }
  }
}