{
  "address": "0xD7D1FE0a2A1B6BB22779F8C0424Cd6139566c261",
  "abi": [
    {
      "inputs": [
        {
          "internalType": "address",
          "name": "_stableToken",
          "type": "address"
        },
        {
          "internalType": "address",
          "name": "_agroAsset",
          "type": "address"
        }
      ],
      "stateMutability": "nonpayable",
      "type": "constructor"
    },
    {
      "anonymous": false,
      "inputs": [
        {
          "indexed": true,
          "internalType": "address",
          "name": "user",
          "type": "address"
        },
        {
          "indexed": false,
          "internalType": "uint256",
          "name": "tokenId",
          "type": "uint256"
        }
      ],
      "name": "NFTLocked",
      "type": "event"
    },
    {
      "anonymous": false,
      "inputs": [
        {
          "indexed": true,
          "internalType": "address",
          "name": "to",
          "type": "address"
        },
        {
          "indexed": false,
          "internalType": "uint256",
          "name": "tokenId",
          "type": "uint256"
        }
      ],
      "name": "NFTReleased",
      "type": "event"
    },
    {
      "anonymous": false,
      "inputs": [
        {
          "indexed": true,
          "internalType": "address",
          "name": "previousOwner",
          "type": "address"
        },
        {
          "indexed": true,
          "internalType": "address",
          "name": "newOwner",
          "type": "address"
        }
      ],
      "name": "OwnershipTransferred",
      "type": "event"
    },
    {
      "anonymous": false,
      "inputs": [
        {
          "indexed": true,
          "internalType": "address",
          "name": "user",
          "type": "address"
        },
        {
          "indexed": false,
          "internalType": "uint256",
          "name": "amount",
          "type": "uint256"
        }
      ],
      "name": "TokenLocked",
      "type": "event"
    },
    {
      "anonymous": false,
      "inputs": [
        {
          "indexed": true,
          "internalType": "address",
          "name": "to",
          "type": "address"
        },
        {
          "indexed": false,
          "internalType": "uint256",
          "name": "amount",
          "type": "uint256"
        }
      ],
      "name": "TokenReleased",
      "type": "event"
    },
    {
      "inputs": [],
      "name": "agroAsset",
      "outputs": [
        {
          "internalType": "contract IERC721",
          "name": "",
          "type": "address"
        }
      ],
      "stateMutability": "view",
      "type": "function"
    },
    {
      "inputs": [
        {
          "internalType": "uint256",
          "name": "tokenId",
          "type": "uint256"
        }
      ],
      "name": "lockNFT",
      "outputs": [],
      "stateMutability": "nonpayable",
      "type": "function"
    },
    {
      "inputs": [
        {
          "internalType": "uint256",
          "name": "amount",
          "type": "uint256"
        }
      ],
      "name": "lockToken",
      "outputs": [],
      "stateMutability": "nonpayable",
      "type": "function"
    },
    {
      "inputs": [],
      "name": "owner",
      "outputs": [
        {
          "internalType": "address",
          "name": "",
          "type": "address"
        }
      ],
      "stateMutability": "view",
      "type": "function"
    },
    {
      "inputs": [
        {
          "internalType": "address",
          "name": "to",
          "type": "address"
        },
        {
          "internalType": "uint256",
          "name": "tokenId",
          "type": "uint256"
        }
      ],
      "name": "releaseNFT",
      "outputs": [],
      "stateMutability": "nonpayable",
      "type": "function"
    },
    {
      "inputs": [
        {
          "internalType": "address",
          "name": "to",
          "type": "address"
        },
        {
          "internalType": "uint256",
          "name": "amount",
          "type": "uint256"
        }
      ],
      "name": "releaseToken",
      "outputs": [],
      "stateMutability": "nonpayable",
      "type": "function"
    },
    {
      "inputs": [],
      "name": "renounceOwnership",
      "outputs": [],
      "stateMutability": "nonpayable",
      "type": "function"
    },
    {
      "inputs": [],
      "name": "stableToken",
      "outputs": [
        {
          "internalType": "contract IERC20",
          "name": "",
          "type": "address"
        }
      ],
      "stateMutability": "view",
      "type": "function"
    },
    {
      "inputs": [
        {
          "internalType": "address",
          "name": "newOwner",
          "type": "address"
        }
      ],
      "name": "transferOwnership",
      "outputs": [],
      "stateMutability": "nonpayable",
      "type": "function"
    }
  ],
  "transactionHash": "0xe44806752b1c0e1af9a0c03fcf234581868cfb4bad52b95e482be21c38e37510",
  "args": [
    "0x8cEE319f762E5A340f2f2EFBbdCf657200498Dfa",
    "0xd6a816E08f6743d80218cd29954755a5fc59FaE7"
  ],
  "numDeployments": 1,
  "solcInputHash": "04cc9bf0a3b4c06fddec8a3640ca2b14",
  "bytecode": "0x608060405234801561001057600080fd5b5060405161074738038061074783398101604081905261002f916100d5565b61003833610069565b600180546001600160a01b039384166001600160a01b03199182161790915560028054929093169116179055610108565b600080546001600160a01b038381166001600160a01b0319831681178455604051919092169283917f8be0079c531659141344cd1fd0a4f28419497f9722a3daafe3b4186f6b6457e09190a35050565b80516001600160a01b03811681146100d057600080fd5b919050565b600080604083850312156100e857600080fd5b6100f1836100b9565b91506100ff602084016100b9565b90509250929050565b610630806101176000396000f3fe608060405234801561001057600080fd5b50600436106100935760003560e01c806380f203631161006657806380f20363146100f75780638da5cb5b1461010a578063a9d75b2b1461011b578063c6f84afa1461012e578063f2fde38b1461014157600080fd5b806327546f3c146100985780632b7170d0146100c757806353edd8f7146100dc578063715018a6146100ef575b600080fd5b6002546100ab906001600160a01b031681565b6040516001600160a01b03909116815260200160405180910390f35b6100da6100d5366004610557565b610154565b005b6100da6100ea36600461058c565b6101f7565b6100da6102be565b6100da610105366004610557565b6102d2565b6000546001600160a01b03166100ab565b6001546100ab906001600160a01b031681565b6100da61013c36600461058c565b610380565b6100da61014f3660046105b6565b61042f565b6002546040516323b872dd60e01b8152336004820152306024820152604481018390526001600160a01b03909116906323b872dd90606401600060405180830381600087803b1580156101a657600080fd5b505af11580156101ba573d6000803e3d6000fd5b50506040518381523392507fa9262575db5f22d8b54192efce38602ac59d04bcdbcba1962fc351473de5614691506020015b60405180910390a250565b6101ff6104ad565b60015460405163a9059cbb60e01b81526001600160a01b038481166004830152602482018490529091169063a9059cbb906044016020604051808303816000875af1158015610252573d6000803e3d6000fd5b505050506040513d601f19601f8201168201806040525081019061027691906105d8565b50816001600160a01b03167f9cf9e3ab58b33f06d81842ea0ad850b6640c6430d6396973312e1715792e7a91826040516102b291815260200190565b60405180910390a25050565b6102c66104ad565b6102d06000610507565b565b6001546040516323b872dd60e01b8152336004820152306024820152604481018390526001600160a01b03909116906323b872dd906064016020604051808303816000875af1158015610329573d6000803e3d6000fd5b505050506040513d601f19601f8201168201806040525081019061034d91906105d8565b5060405181815233907ff9626bca62c59d77fa45a204dc096874ee066a5c5e124aa9ce6c438dbdf7387a906020016101ec565b6103886104ad565b6002546040516323b872dd60e01b81523060048201526001600160a01b03848116602483015260448201849052909116906323b872dd90606401600060405180830381600087803b1580156103dc57600080fd5b505af11580156103f0573d6000803e3d6000fd5b50505050816001600160a01b03167f5b341882162aebbe11c8830f2f15f44bc2302c1ad136289380f469059fd1dd30826040516102b291815260200190565b6104376104ad565b6001600160a01b0381166104a15760405162461bcd60e51b815260206004820152602660248201527f4f776e61626c653a206e6577206f776e657220697320746865207a65726f206160448201526564647265737360d01b60648201526084015b60405180910390fd5b6104aa81610507565b50565b6000546001600160a01b031633146102d05760405162461bcd60e51b815260206004820181905260248201527f4f776e61626c653a2063616c6c6572206973206e6f7420746865206f776e65726044820152606401610498565b600080546001600160a01b038381166001600160a01b0319831681178455604051919092169283917f8be0079c531659141344cd1fd0a4f28419497f9722a3daafe3b4186f6b6457e09190a35050565b60006020828403121561056957600080fd5b5035919050565b80356001600160a01b038116811461058757600080fd5b919050565b6000806040838503121561059f57600080fd5b6105a883610570565b946020939093013593505050565b6000602082840312156105c857600080fd5b6105d182610570565b9392505050565b6000602082840312156105ea57600080fd5b815180151581146105d157600080fdfea2646970667358221220da59fbc9ecc061cb7392bd05ba8ae5d13e573753ce914d05daf72c46b8a43e5c64736f6c634300081c0033",
  "devdoc": {
    "details": "\"Trava\" ativos na Base para serem \"espelhados\" no Zama. Em um hackathon, o \"backend\" (você) assiste a esses eventos.",
    "kind": "dev",
    "methods": {
      "owner()": {
        "details": "Returns the address of the current owner."
      },
      "renounceOwnership()": {
        "details": "Leaves the contract without owner. It will not be possible to call `onlyOwner` functions. Can only be called by the current owner. NOTE: Renouncing ownership will leave the contract without an owner, thereby disabling any functionality that is only available to the owner."
      },
      "transferOwnership(address)": {
        "details": "Transfers ownership of the contract to a new account (`newOwner`). Can only be called by the current owner."
      }
    },
    "title": "MockBridgeBase",
    "version": 1
  },
  "userdoc": {
    "kind": "user",
    "methods": {},
    "version": 1
  },
  "storageLayout": {
    "storage": [
      {
        "astId": 38990,
        "contract": "contracts/MockBridgeBase.sol:MockBridgeBase",
        "label": "_owner",
        "offset": 0,
        "slot": "0",
        "type": "t_address"
      },
      {
        "astId": 44784,
        "contract": "contracts/MockBridgeBase.sol:MockBridgeBase",
        "label": "stableToken",
        "offset": 0,
        "slot": "1",
        "type": "t_contract(IERC20)39825"
      },
      {
        "astId": 44787,
        "contract": "contracts/MockBridgeBase.sol:MockBridgeBase",
        "label": "agroAsset",
        "offset": 0,
        "slot": "2",
        "type": "t_contract(IERC721)41305"
      }
    ],
    "types": {
      "t_address": {
        "encoding": "inplace",
        "label": "address",
        "numberOfBytes": "20"
      },
      "t_contract(IERC20)39825": {
        "encoding": "inplace",
        "label": "contract IERC20",
        "numberOfBytes": "20"
      },
      "t_contract(IERC721)41305": {
        "encoding": "inplace",
        "label": "contract IERC721",
        "numberOfBytes": "20"
      }
    }
  }
}