{
  "address": "0x0e5Ca3a91e24a706C4b9af7c48cD150748FAa4a5",
  "abi": [
    {
      "inputs": [
        {
          "internalType": "address",
          "name": "_priceFeed",
          "type": "address"
        },
        {
          "internalType": "address",
          "name": "_stableAddr",
          "type": "address"
        }
      ],
      "stateMutability": "nonpayable",
      "type": "constructor"
    },
    {
      "anonymous": false,
      "inputs": [
        {
          "indexed": true,
          "internalType": "address",
          "name": "previousOwner",
          "type": "address"
        },
        {
          "indexed": true,
          "internalType": "address",
          "name": "newOwner",
          "type": "address"
        }
      ],
      "name": "OwnershipTransferred",
      "type": "event"
    },
    {
      "anonymous": false,
      "inputs": [
        {
          "indexed": true,
          "internalType": "address",
          "name": "liquidator",
          "type": "address"
        },
        {
          "indexed": true,
          "internalType": "address",
          "name": "owner",
          "type": "address"
        },
        {
          "indexed": false,
          "internalType": "uint256",
          "name": "stablePaid",
          "type": "uint256"
        },
        {
          "indexed": false,
          "internalType": "uint256",
          "name": "ethSeized",
          "type": "uint256"
        }
      ],
      "name": "VaultLiquidated",
      "type": "event"
    },
    {
      "anonymous": false,
      "inputs": [
        {
          "indexed": true,
          "internalType": "address",
          "name": "owner",
          "type": "address"
        },
        {
          "indexed": false,
          "internalType": "uint256",
          "name": "ethCollateral",
          "type": "uint256"
        },
        {
          "indexed": false,
          "internalType": "uint256",
          "name": "stableDebt",
          "type": "uint256"
        }
      ],
      "name": "VaultUpdated",
      "type": "event"
    },
    {
      "inputs": [],
      "name": "BPS",
      "outputs": [
        {
          "internalType": "uint256",
          "name": "",
          "type": "uint256"
        }
      ],
      "stateMutability": "view",
      "type": "function"
    },
    {
      "inputs": [],
      "name": "LIQUIDATION_THRESHOLD_BPS",
      "outputs": [
        {
          "internalType": "uint256",
          "name": "",
          "type": "uint256"
        }
      ],
      "stateMutability": "view",
      "type": "function"
    },
    {
      "inputs": [],
      "name": "MIN_COLLATERAL_RATIO_BPS",
      "outputs": [
        {
          "internalType": "uint256",
          "name": "",
          "type": "uint256"
        }
      ],
      "stateMutability": "view",
      "type": "function"
    },
    {
      "inputs": [],
      "name": "PRECISION",
      "outputs": [
        {
          "internalType": "uint256",
          "name": "",
          "type": "uint256"
        }
      ],
      "stateMutability": "view",
      "type": "function"
    },
    {
      "inputs": [
        {
          "internalType": "uint256",
          "name": "_stableToMint",
          "type": "uint256"
        }
      ],
      "name": "depositAndMint",
      "outputs": [],
      "stateMutability": "payable",
      "type": "function"
    },
    {
      "inputs": [
        {
          "internalType": "uint256",
          "name": "_ethAmount",
          "type": "uint256"
        }
      ],
      "name": "getCollateralValueUSD",
      "outputs": [
        {
          "internalType": "uint256",
          "name": "",
          "type": "uint256"
        }
      ],
      "stateMutability": "view",
      "type": "function"
    },
    {
      "inputs": [
        {
          "internalType": "address",
          "name": "_owner",
          "type": "address"
        }
      ],
      "name": "getHealthFactor",
      "outputs": [
        {
          "internalType": "uint256",
          "name": "",
          "type": "uint256"
        }
      ],
      "stateMutability": "view",
      "type": "function"
    },
    {
      "inputs": [],
      "name": "getNormalizedPrice",
      "outputs": [
        {
          "internalType": "uint256",
          "name": "",
          "type": "uint256"
        }
      ],
      "stateMutability": "view",
      "type": "function"
    },
    {
      "inputs": [
        {
          "internalType": "address",
          "name": "_owner",
          "type": "address"
        }
      ],
      "name": "liquidate",
      "outputs": [],
      "stateMutability": "nonpayable",
      "type": "function"
    },
    {
      "inputs": [],
      "name": "liquidationBonusBps",
      "outputs": [
        {
          "internalType": "uint256",
          "name": "",
          "type": "uint256"
        }
      ],
      "stateMutability": "view",
      "type": "function"
    },
    {
      "inputs": [],
      "name": "owner",
      "outputs": [
        {
          "internalType": "address",
          "name": "",
          "type": "address"
        }
      ],
      "stateMutability": "view",
      "type": "function"
    },
    {
      "inputs": [],
      "name": "priceFeed",
      "outputs": [
        {
          "internalType": "contract AggregatorV3Interface",
          "name": "",
          "type": "address"
        }
      ],
      "stateMutability": "view",
      "type": "function"
    },
    {
      "inputs": [],
      "name": "renounceOwnership",
      "outputs": [],
      "stateMutability": "nonpayable",
      "type": "function"
    },
    {
      "inputs": [
        {
          "internalType": "uint256",
          "name": "_stableToRepay",
          "type": "uint256"
        },
        {
          "internalType": "uint256",
          "name": "_ethToWithdraw",
          "type": "uint256"
        }
      ],
      "name": "repayAndWithdraw",
      "outputs": [],
      "stateMutability": "nonpayable",
      "type": "function"
    },
    {
      "inputs": [],
      "name": "stable",
      "outputs": [
        {
          "internalType": "contract StableToken",
          "name": "",
          "type": "address"
        }
      ],
      "stateMutability": "view",
      "type": "function"
    },
    {
      "inputs": [
        {
          "internalType": "address",
          "name": "newOwner",
          "type": "address"
        }
      ],
      "name": "transferOwnership",
      "outputs": [],
      "stateMutability": "nonpayable",
      "type": "function"
    },
    {
      "inputs": [
        {
          "internalType": "address",
          "name": "",
          "type": "address"
        }
      ],
      "name": "vaults",
      "outputs": [
        {
          "internalType": "uint256",
          "name": "ethCollateral",
          "type": "uint256"
        },
        {
          "internalType": "uint256",
          "name": "stableDebt",
          "type": "uint256"
        }
      ],
      "stateMutability": "view",
      "type": "function"
    },
    {
      "stateMutability": "payable",
      "type": "receive"
    }
  ],
  "transactionHash": "0x84d8cdaa1da9c9e1d1018e4a5d182ca38629f7124c5f8d3e3576f797ab3f59aa",
  "args": [
    "0x4adc67696ba383f43dd60a9ea083f30304242666",
    "0x5C4D6A2B209dDb9B0a2B7905D4CC941C2Dc0a3Ed"
  ],
  "numDeployments": 1,
  "solcInputHash": "04cc9bf0a3b4c06fddec8a3640ca2b14",
  "bytecode": "0x608060405234801561001057600080fd5b5060405161150738038061150783398101604081905261002f91610136565b600160005561003d336100c8565b6001600160a01b0382166100975760405162461bcd60e51b815260206004820152601360248201527f7072696365206665656420726571756972656400000000000000000000000000604482015260640160405180910390fd5b600380546001600160a01b039384166001600160a01b03199182161790915560028054929093169116179055610169565b600180546001600160a01b038381166001600160a01b0319831681179093556040519116919082907f8be0079c531659141344cd1fd0a4f28419497f9722a3daafe3b4186f6b6457e090600090a35050565b80516001600160a01b038116811461013157600080fd5b919050565b6000806040838503121561014957600080fd5b6101528361011a565b91506101606020840161011a565b90509250929050565b61138f806101786000396000f3fe6080604052600436106101025760003560e01c8063715018a611610095578063aaf5eb6811610064578063aaf5eb6814610297578063ebc9b94d146102b3578063f2fde38b146102d3578063fb525be0146102f3578063fe6bcd7c1461031357600080fd5b8063715018a6146101fb578063741bef1a146102105780638da5cb5b14610230578063a622ee7c1461024e57600080fd5b8063249d39e9116100d1578063249d39e91461019a578063295c2b86146101b05780632f865568146101c657806345fd0465146101e857600080fd5b80630c6d5a581461010e57806314b5015a1461013757806319970d8e1461014c57806322be3de11461016257600080fd5b3661010957005b600080fd5b34801561011a57600080fd5b50610124612af881565b6040519081526020015b60405180910390f35b34801561014357600080fd5b50610124610333565b34801561015857600080fd5b506101246101f481565b34801561016e57600080fd5b50600254610182906001600160a01b031681565b6040516001600160a01b03909116815260200161012e565b3480156101a657600080fd5b5061012461271081565b3480156101bc57600080fd5b50610124613a9881565b3480156101d257600080fd5b506101e66101e13660046110b5565b6104cf565b005b6101e66101f63660046110de565b6108cc565b34801561020757600080fd5b506101e6610ac1565b34801561021c57600080fd5b50600354610182906001600160a01b031681565b34801561023c57600080fd5b506001546001600160a01b0316610182565b34801561025a57600080fd5b506102826102693660046110b5565b6004602052600090815260409020805460019091015482565b6040805192835260208301919091520161012e565b3480156102a357600080fd5b50610124670de0b6b3a764000081565b3480156102bf57600080fd5b506101e66102ce3660046110f7565b610ad5565b3480156102df57600080fd5b506101e66102ee3660046110b5565b610e57565b3480156102ff57600080fd5b5061012461030e3660046110de565b610ecd565b34801561031f57600080fd5b5061012461032e3660046110b5565b610efe565b600080600360009054906101000a90046001600160a01b03166001600160a01b031663feaf968c6040518163ffffffff1660e01b815260040160a060405180830381865afa158015610389573d6000803e3d6000fd5b505050506040513d601f19601f820116820180604052508101906103ad9190611138565b505050915050600081136103f85760405162461bcd60e51b815260206004820152600d60248201526c696e76616c696420707269636560981b60448201526064015b60405180910390fd5b6003546040805163313ce56760e01b815290516000926001600160a01b03169163313ce5679160048083019260209291908290030181865afa158015610442573d6000803e3d6000fd5b505050506040513d601f19601f82011682018060405250810190610466919061118a565b90508160ff821660120361047b579392505050565b60128260ff1610156104af576104928260126111c3565b61049d90600a6112c9565b6104a790826112d8565b935050505090565b6104ba6012836111c3565b6104c590600a6112c9565b6104a790826112ef565b6104d7610fb0565b6001600160a01b038116600090815260046020526040902060018101548061052b5760405162461bcd60e51b8152602060048201526007602482015266139bc81919589d60ca1b60448201526064016103ef565b670de0b6b3a764000061053d84610efe565b11156105845760405162461bcd60e51b81526020600482015260166024820152755661756c74206e6f74206c6971756964617461626c6560501b60448201526064016103ef565b60006127106105956101f482611311565b61059f90846112d8565b6105a991906112ef565b905060006105b5610333565b6105c7670de0b6b3a7640000846112d8565b6105d191906112ef565b905080846000015410156106385760405162461bcd60e51b815260206004820152602860248201527f4e6f7420656e6f75676820636f6c6c61746572616c20696e207661756c7420666044820152676f7220626f6e757360c01b60648201526084016103ef565b804710156106965760405162461bcd60e51b815260206004820152602560248201527f496e73756666696369656e742045544820726573657276657320696e20636f6e6044820152641d1c9858dd60da1b60648201526084016103ef565b6002546040516323b872dd60e01b8152336004820152306024820152604481018590526001600160a01b03909116906323b872dd906064016020604051808303816000875af11580156106ed573d6000803e3d6000fd5b505050506040513d601f19601f820116820180604052508101906107119190611324565b50600254604051632770a7eb60e21b8152306004820152602481018590526001600160a01b0390911690639dc29fac90604401600060405180830381600087803b15801561075e57600080fd5b505af1158015610772573d6000803e3d6000fd5b50506040516000925033915083908381818185875af1925050503d80600081146107b8576040519150601f19603f3d011682016040523d82523d6000602084013e6107bd565b606091505b50509050806108045760405162461bcd60e51b8152602060048201526013602482015272115512081d1c985b9cd9995c8819985a5b1959606a1b60448201526064016103ef565b60006001860181905585548391879161081e908490611346565b909155505060408051858152602081018490526001600160a01b0388169133917f5c02ddf6410d0c87dcaa4b9b77dc87db69df052bb913b9a046283fdec5d69a21910160405180910390a3845460018601546040516001600160a01b038916927f78f5f4fe573a0f848b230b1151919d737f07fd52424347dbd007dd57fb906e00926108b292918252602082015260400190565b60405180910390a250505050506108c96001600055565b50565b6108d4610fb0565b336000908152600460205260409020341561090357348160000160008282546108fd9190611311565b90915550505b8115610a6e578181600101600082825461091d9190611311565b9091555050805460009061093090610ecd565b60018301549091508061096f5760405162461bcd60e51b8152602060048201526007602482015266139bc81919589d60ca1b60448201526064016103ef565b600081610984670de0b6b3a7640000856112d8565b61098e91906112ef565b90506000670de0b6b3a76400006109a7612710846112d8565b6109b191906112ef565b9050613a98811015610a055760405162461bcd60e51b815260206004820152601f60248201527f5661756c74206865616c746820746f6f206c6f77206166746572206d696e740060448201526064016103ef565b6002546040516340c10f1960e01b8152336004820152602481018890526001600160a01b03909116906340c10f1990604401600060405180830381600087803b158015610a5157600080fd5b505af1158015610a65573d6000803e3d6000fd5b50505050505050505b8054600182015460405133927f78f5f4fe573a0f848b230b1151919d737f07fd52424347dbd007dd57fb906e0092610aae92918252602082015260400190565b60405180910390a2506108c96001600055565b610ac9611009565b610ad36000611063565b565b610add610fb0565b3360009081526004602052604090208215610c38578281600101541015610b3e5760405162461bcd60e51b81526020600482015260156024820152740e4cae0c2f240c2dadeeadce840e8dede40d0d2ced605b1b60448201526064016103ef565b82816001016000828254610b529190611346565b90915550506002546040516323b872dd60e01b8152336004820152306024820152604481018590526001600160a01b03909116906323b872dd906064016020604051808303816000875af1158015610bae573d6000803e3d6000fd5b505050506040513d601f19601f82011682018060405250810190610bd29190611324565b50600254604051632770a7eb60e21b8152306004820152602481018590526001600160a01b0390911690639dc29fac90604401600060405180830381600087803b158015610c1f57600080fd5b505af1158015610c33573d6000803e3d6000fd5b505050505b8115610e00578054821115610c8f5760405162461bcd60e51b815260206004820152601860248201527f776974686472617720616d6f756e7420746f6f2068696768000000000000000060448201526064016103ef565b81816000016000828254610ca39190611346565b9091555050600181015415610d70576000610cc18260000154610ecd565b6001830154909150600081610cde670de0b6b3a7640000856112d8565b610ce891906112ef565b90506000670de0b6b3a7640000610d01612710846112d8565b610d0b91906112ef565b9050613a98811015610d6b5760405162461bcd60e51b815260206004820152602360248201527f5661756c74206865616c746820746f6f206c6f7720616674657220776974686460448201526272617760e81b60648201526084016103ef565b505050505b604051600090339084908381818185875af1925050503d8060008114610db2576040519150601f19603f3d011682016040523d82523d6000602084013e610db7565b606091505b5050905080610dfe5760405162461bcd60e51b8152602060048201526013602482015272115512081d1c985b9cd9995c8819985a5b1959606a1b60448201526064016103ef565b505b8054600182015460405133927f78f5f4fe573a0f848b230b1151919d737f07fd52424347dbd007dd57fb906e0092610e4092918252602082015260400190565b60405180910390a250610e536001600055565b5050565b610e5f611009565b6001600160a01b038116610ec45760405162461bcd60e51b815260206004820152602660248201527f4f776e61626c653a206e6577206f776e657220697320746865207a65726f206160448201526564647265737360d01b60648201526084016103ef565b6108c981611063565b600080610ed8610333565b9050670de0b6b3a7640000610eed82856112d8565b610ef791906112ef565b9392505050565b6001600160a01b038116600090815260046020908152604080832081518083019092528054825260010154918101829052908203610f40575060001992915050565b6000610f4f8260000151610ecd565b60208301519091506000819003610f6c5750600019949350505050565b600081610f81670de0b6b3a7640000856112d8565b610f8b91906112ef565b9050612af8610f9c612710836112d8565b610fa691906112ef565b9695505050505050565b6002600054036110025760405162461bcd60e51b815260206004820152601f60248201527f5265656e7472616e637947756172643a207265656e7472616e742063616c6c0060448201526064016103ef565b6002600055565b6001546001600160a01b03163314610ad35760405162461bcd60e51b815260206004820181905260248201527f4f776e61626c653a2063616c6c6572206973206e6f7420746865206f776e657260448201526064016103ef565b600180546001600160a01b038381166001600160a01b0319831681179093556040519116919082907f8be0079c531659141344cd1fd0a4f28419497f9722a3daafe3b4186f6b6457e090600090a35050565b6000602082840312156110c757600080fd5b81356001600160a01b0381168114610ef757600080fd5b6000602082840312156110f057600080fd5b5035919050565b6000806040838503121561110a57600080fd5b50508035926020909101359150565b805169ffffffffffffffffffff8116811461113357600080fd5b919050565b600080600080600060a0868803121561115057600080fd5b61115986611119565b6020870151604088015160608901519297509095509350915061117e60808701611119565b90509295509295909350565b60006020828403121561119c57600080fd5b815160ff81168114610ef757600080fd5b634e487b7160e01b600052601160045260246000fd5b60ff82811682821603908111156111dc576111dc6111ad565b92915050565b6001815b600184111561121d57808504811115611201576112016111ad565b600184161561120f57908102905b60019390931c9280026111e6565b935093915050565b600082611234575060016111dc565b81611241575060006111dc565b816001811461125757600281146112615761127d565b60019150506111dc565b60ff841115611272576112726111ad565b50506001821b6111dc565b5060208310610133831016604e8410600b84101617156112a0575081810a6111dc565b6112ad60001984846111e2565b80600019048211156112c1576112c16111ad565b029392505050565b6000610ef760ff841683611225565b80820281158282048414176111dc576111dc6111ad565b60008261130c57634e487b7160e01b600052601260045260246000fd5b500490565b808201808211156111dc576111dc6111ad565b60006020828403121561133657600080fd5b81518015158114610ef757600080fd5b818103818111156111dc576111dc6111ad56fea2646970667358221220d51cb3adc3a9a1ace5e3aa6a570ee02129385288da91f8f8ee699efe9f12e75b64736f6c634300081c0033",
  "devdoc": {
    "kind": "dev",
    "methods": {
      "owner()": {
        "details": "Returns the address of the current owner."
      },
      "renounceOwnership()": {
        "details": "Leaves the contract without owner. It will not be possible to call `onlyOwner` functions. Can only be called by the current owner. NOTE: Renouncing ownership will leave the contract without an owner, thereby disabling any functionality that is only available to the owner."
      },
      "transferOwnership(address)": {
        "details": "Transfers ownership of the contract to a new account (`newOwner`). Can only be called by the current owner."
      }
    },
    "version": 1
  },
  "userdoc": {
    "kind": "user",
    "methods": {},
    "version": 1
  },
  "storageLayout": {
    "storage": [
      {
        "astId": 39106,
        "contract": "contracts/VaultManager.sol:VaultManager",
        "label": "_status",
        "offset": 0,
        "slot": "0",
        "type": "t_uint256"
      },
      {
        "astId": 38990,
        "contract": "contracts/VaultManager.sol:VaultManager",
        "label": "_owner",
        "offset": 0,
        "slot": "1",
        "type": "t_address"
      },
      {
        "astId": 44993,
        "contract": "contracts/VaultManager.sol:VaultManager",
        "label": "stable",
        "offset": 0,
        "slot": "2",
        "type": "t_contract(StableToken)44975"
      },
      {
        "astId": 44996,
        "contract": "contracts/VaultManager.sol:VaultManager",
        "label": "priceFeed",
        "offset": 0,
        "slot": "3",
        "type": "t_contract(AggregatorV3Interface)45"
      },
      {
        "astId": 45001,
        "contract": "contracts/VaultManager.sol:VaultManager",
        "label": "vaults",
        "offset": 0,
        "slot": "4",
        "type": "t_mapping(t_address,t_struct(Vault)45006_storage)"
      }
    ],
    "types": {
      "t_address": {
        "encoding": "inplace",
        "label": "address",
        "numberOfBytes": "20"
      },
      "t_contract(AggregatorV3Interface)45": {
        "encoding": "inplace",
        "label": "contract AggregatorV3Interface",
        "numberOfBytes": "20"
      },
      "t_contract(StableToken)44975": {
        "encoding": "inplace",
        "label": "contract StableToken",
        "numberOfBytes": "20"
      },
      "t_mapping(t_address,t_struct(Vault)45006_storage)": {
        "encoding": "mapping",
        "key": "t_address",
        "label": "mapping(address => struct VaultManager.Vault)",
        "numberOfBytes": "32",
        "value": "t_struct(Vault)45006_storage"
      },
      "t_struct(Vault)45006_storage": {
        "encoding": "inplace",
        "label": "struct VaultManager.Vault",
        "members": [
          {
            "astId": 45003,
            "contract": "contracts/VaultManager.sol:VaultManager",
            "label": "ethCollateral",
            "offset": 0,
            "slot": "0",
            "type": "t_uint256"
          },
          {
            "astId": 45005,
            "contract": "contracts/VaultManager.sol:VaultManager",
            "label": "stableDebt",
            "offset": 0,
            "slot": "1",
            "type": "t_uint256"
          }
        ],
        "numberOfBytes": "64"
      },
      "t_uint256": {
        "encoding": "inplace",
        "label": "uint256",
        "numberOfBytes": "32"
      }
    }
  }
}