{
  "address": "0x085a685C6B980EC90802151369a1061f048023a5",
  "abi": [
    {
      "inputs": [
        {
          "internalType": "address",
          "name": "_priceFeed",
          "type": "address"
        },
        {
          "internalType": "address",
          "name": "_stableAddr",
          "type": "address"
        }
      ],
      "stateMutability": "nonpayable",
      "type": "constructor"
    },
    {
      "anonymous": false,
      "inputs": [
        {
          "indexed": true,
          "internalType": "address",
          "name": "previousOwner",
          "type": "address"
        },
        {
          "indexed": true,
          "internalType": "address",
          "name": "newOwner",
          "type": "address"
        }
      ],
      "name": "OwnershipTransferred",
      "type": "event"
    },
    {
      "anonymous": false,
      "inputs": [
        {
          "indexed": true,
          "internalType": "address",
          "name": "owner",
          "type": "address"
        },
        {
          "indexed": false,
          "internalType": "uint256",
          "name": "ethCollateral",
          "type": "uint256"
        },
        {
          "indexed": false,
          "internalType": "uint256",
          "name": "stableDebt",
          "type": "uint256"
        }
      ],
      "name": "VaultUpdated",
      "type": "event"
    },
    {
      "inputs": [],
      "name": "BPS",
      "outputs": [
        {
          "internalType": "uint256",
          "name": "",
          "type": "uint256"
        }
      ],
      "stateMutability": "view",
      "type": "function"
    },
    {
      "inputs": [],
      "name": "LIQUIDATION_THRESHOLD_BPS",
      "outputs": [
        {
          "internalType": "uint256",
          "name": "",
          "type": "uint256"
        }
      ],
      "stateMutability": "view",
      "type": "function"
    },
    {
      "inputs": [],
      "name": "MIN_COLLATERAL_RATIO_BPS",
      "outputs": [
        {
          "internalType": "uint256",
          "name": "",
          "type": "uint256"
        }
      ],
      "stateMutability": "view",
      "type": "function"
    },
    {
      "inputs": [],
      "name": "PRECISION",
      "outputs": [
        {
          "internalType": "uint256",
          "name": "",
          "type": "uint256"
        }
      ],
      "stateMutability": "view",
      "type": "function"
    },
    {
      "inputs": [
        {
          "internalType": "uint256",
          "name": "_stableToMint",
          "type": "uint256"
        }
      ],
      "name": "depositAndMint",
      "outputs": [],
      "stateMutability": "payable",
      "type": "function"
    },
    {
      "inputs": [
        {
          "internalType": "uint256",
          "name": "_ethAmount",
          "type": "uint256"
        }
      ],
      "name": "getCollateralValueUSD",
      "outputs": [
        {
          "internalType": "uint256",
          "name": "",
          "type": "uint256"
        }
      ],
      "stateMutability": "view",
      "type": "function"
    },
    {
      "inputs": [
        {
          "internalType": "address",
          "name": "_owner",
          "type": "address"
        }
      ],
      "name": "getHealthFactor",
      "outputs": [
        {
          "internalType": "uint256",
          "name": "",
          "type": "uint256"
        }
      ],
      "stateMutability": "view",
      "type": "function"
    },
    {
      "inputs": [],
      "name": "getNormalizedPrice",
      "outputs": [
        {
          "internalType": "uint256",
          "name": "",
          "type": "uint256"
        }
      ],
      "stateMutability": "view",
      "type": "function"
    },
    {
      "inputs": [],
      "name": "owner",
      "outputs": [
        {
          "internalType": "address",
          "name": "",
          "type": "address"
        }
      ],
      "stateMutability": "view",
      "type": "function"
    },
    {
      "inputs": [],
      "name": "priceFeed",
      "outputs": [
        {
          "internalType": "contract AggregatorV3Interface",
          "name": "",
          "type": "address"
        }
      ],
      "stateMutability": "view",
      "type": "function"
    },
    {
      "inputs": [],
      "name": "renounceOwnership",
      "outputs": [],
      "stateMutability": "nonpayable",
      "type": "function"
    },
    {
      "inputs": [
        {
          "internalType": "uint256",
          "name": "_stableToRepay",
          "type": "uint256"
        },
        {
          "internalType": "uint256",
          "name": "_ethToWithdraw",
          "type": "uint256"
        }
      ],
      "name": "repayAndWithdraw",
      "outputs": [],
      "stateMutability": "nonpayable",
      "type": "function"
    },
    {
      "inputs": [],
      "name": "stable",
      "outputs": [
        {
          "internalType": "contract StableToken",
          "name": "",
          "type": "address"
        }
      ],
      "stateMutability": "view",
      "type": "function"
    },
    {
      "inputs": [
        {
          "internalType": "address",
          "name": "newOwner",
          "type": "address"
        }
      ],
      "name": "transferOwnership",
      "outputs": [],
      "stateMutability": "nonpayable",
      "type": "function"
    },
    {
      "inputs": [
        {
          "internalType": "address",
          "name": "",
          "type": "address"
        }
      ],
      "name": "vaults",
      "outputs": [
        {
          "internalType": "uint256",
          "name": "ethCollateral",
          "type": "uint256"
        },
        {
          "internalType": "uint256",
          "name": "stableDebt",
          "type": "uint256"
        }
      ],
      "stateMutability": "view",
      "type": "function"
    },
    {
      "stateMutability": "payable",
      "type": "receive"
    }
  ],
  "transactionHash": "0x69dc29eae3af07733264d1ef79beef23a54f12d6abe39bafd33ef4a598d2a56c",
  "args": [
    "0x4adc67696ba383f43dd60a9ea083f30304242666",
    "0x877d49782Df3fD464013f7320FB619F5f78721D7"
  ],
  "numDeployments": 1,
  "solcInputHash": "3937efdd9bb7beac8cd25136a5a20a9a",
  "bytecode": "0x608060405234801561001057600080fd5b50604051610fc6380380610fc683398101604081905261002f91610136565b600160005561003d336100c8565b6001600160a01b0382166100975760405162461bcd60e51b815260206004820152601360248201527f7072696365206665656420726571756972656400000000000000000000000000604482015260640160405180910390fd5b600380546001600160a01b039384166001600160a01b03199182161790915560028054929093169116179055610169565b600180546001600160a01b038381166001600160a01b0319831681179093556040519116919082907f8be0079c531659141344cd1fd0a4f28419497f9722a3daafe3b4186f6b6457e090600090a35050565b80516001600160a01b038116811461013157600080fd5b919050565b6000806040838503121561014957600080fd5b6101528361011a565b91506101606020840161011a565b90509250929050565b610e4e806101786000396000f3fe6080604052600436106100ec5760003560e01c8063741bef1a1161008a578063ebc9b94d11610059578063ebc9b94d14610267578063f2fde38b14610287578063fb525be0146102a7578063fe6bcd7c146102c757600080fd5b8063741bef1a146101c45780638da5cb5b146101e4578063a622ee7c14610202578063aaf5eb681461024b57600080fd5b8063249d39e9116100c6578063249d39e91461016e578063295c2b861461018457806345fd04651461019a578063715018a6146101af57600080fd5b80630c6d5a58146100f857806314b5015a1461012157806322be3de11461013657600080fd5b366100f357005b600080fd5b34801561010457600080fd5b5061010e613a9881565b6040519081526020015b60405180910390f35b34801561012d57600080fd5b5061010e6102e7565b34801561014257600080fd5b50600254610156906001600160a01b031681565b6040516001600160a01b039091168152602001610118565b34801561017a57600080fd5b5061010e61271081565b34801561019057600080fd5b5061010e613e8081565b6101ad6101a8366004610b74565b610483565b005b3480156101bb57600080fd5b506101ad6105ee565b3480156101d057600080fd5b50600354610156906001600160a01b031681565b3480156101f057600080fd5b506001546001600160a01b0316610156565b34801561020e57600080fd5b5061023661021d366004610b8d565b6004602052600090815260409020805460019091015482565b60408051928352602083019190915201610118565b34801561025757600080fd5b5061010e670de0b6b3a764000081565b34801561027357600080fd5b506101ad610282366004610bb6565b610602565b34801561029357600080fd5b506101ad6102a2366004610b8d565b61092b565b3480156102b357600080fd5b5061010e6102c2366004610b74565b6109a1565b3480156102d357600080fd5b5061010e6102e2366004610b8d565b6109d2565b600080600360009054906101000a90046001600160a01b03166001600160a01b031663feaf968c6040518163ffffffff1660e01b815260040160a060405180830381865afa15801561033d573d6000803e3d6000fd5b505050506040513d601f19601f820116820180604052508101906103619190610bf7565b505050915050600081136103ac5760405162461bcd60e51b815260206004820152600d60248201526c696e76616c696420707269636560981b60448201526064015b60405180910390fd5b6003546040805163313ce56760e01b815290516000926001600160a01b03169163313ce5679160048083019260209291908290030181865afa1580156103f6573d6000803e3d6000fd5b505050506040513d601f19601f8201168201806040525081019061041a9190610c49565b90508160ff821660120361042f579392505050565b60128260ff16101561046357610446826012610c82565b61045190600a610d88565b61045b9082610d97565b935050505090565b61046e601283610c82565b61047990600a610d88565b61045b9082610dae565b61048b610a6f565b33600090815260046020526040902034156104ba57348160000160008282546104b49190610dd0565b90915550505b811561059857818160010160008282546104d49190610dd0565b9091555061271090506104e6336109d2565b116105335760405162461bcd60e51b815260206004820152601f60248201527f5661756c74206865616c746820746f6f206c6f77206166746572206d696e740060448201526064016103a3565b6002546040516340c10f1960e01b8152336004820152602481018490526001600160a01b03909116906340c10f1990604401600060405180830381600087803b15801561057f57600080fd5b505af1158015610593573d6000803e3d6000fd5b505050505b8054600182015460405133927f78f5f4fe573a0f848b230b1151919d737f07fd52424347dbd007dd57fb906e00926105d892918252602082015260400190565b60405180910390a2506105eb6001600055565b50565b6105f6610ac8565b6106006000610b22565b565b61060a610a6f565b336000908152600460205260409020821561076557828160010154101561066b5760405162461bcd60e51b81526020600482015260156024820152740e4cae0c2f240c2dadeeadce840e8dede40d0d2ced605b1b60448201526064016103a3565b8281600101600082825461067f9190610de3565b90915550506002546040516323b872dd60e01b8152336004820152306024820152604481018590526001600160a01b03909116906323b872dd906064016020604051808303816000875af11580156106db573d6000803e3d6000fd5b505050506040513d601f19601f820116820180604052508101906106ff9190610df6565b50600254604051632770a7eb60e21b8152306004820152602481018590526001600160a01b0390911690639dc29fac90604401600060405180830381600087803b15801561074c57600080fd5b505af1158015610760573d6000803e3d6000fd5b505050505b81156108d45780548211156107bc5760405162461bcd60e51b815260206004820152601860248201527f776974686472617720616d6f756e7420746f6f2068696768000000000000000060448201526064016103a3565b818160000160008282546107d09190610de3565b9091555050600181015415610844576127106107eb336109d2565b116108445760405162461bcd60e51b815260206004820152602360248201527f5661756c74206865616c746820746f6f206c6f7720616674657220776974686460448201526272617760e81b60648201526084016103a3565b604051600090339084908381818185875af1925050503d8060008114610886576040519150601f19603f3d011682016040523d82523d6000602084013e61088b565b606091505b50509050806108d25760405162461bcd60e51b8152602060048201526013602482015272115512081d1c985b9cd9995c8819985a5b1959606a1b60448201526064016103a3565b505b8054600182015460405133927f78f5f4fe573a0f848b230b1151919d737f07fd52424347dbd007dd57fb906e009261091492918252602082015260400190565b60405180910390a2506109276001600055565b5050565b610933610ac8565b6001600160a01b0381166109985760405162461bcd60e51b815260206004820152602660248201527f4f776e61626c653a206e6577206f776e657220697320746865207a65726f206160448201526564647265737360d01b60648201526084016103a3565b6105eb81610b22565b6000806109ac6102e7565b9050670de0b6b3a76400006109c18285610d97565b6109cb9190610dae565b9392505050565b6001600160a01b038116600090815260046020908152604080832081518083019092528054825260010154918101829052908203610a14575060001992915050565b6000610a2382600001516109a1565b6020830151909150600081610a40670de0b6b3a764000085610d97565b610a4a9190610dae565b9050613a98610a5b61271083610d97565b610a659190610dae565b9695505050505050565b600260005403610ac15760405162461bcd60e51b815260206004820152601f60248201527f5265656e7472616e637947756172643a207265656e7472616e742063616c6c0060448201526064016103a3565b6002600055565b6001546001600160a01b031633146106005760405162461bcd60e51b815260206004820181905260248201527f4f776e61626c653a2063616c6c6572206973206e6f7420746865206f776e657260448201526064016103a3565b600180546001600160a01b038381166001600160a01b0319831681179093556040519116919082907f8be0079c531659141344cd1fd0a4f28419497f9722a3daafe3b4186f6b6457e090600090a35050565b600060208284031215610b8657600080fd5b5035919050565b600060208284031215610b9f57600080fd5b81356001600160a01b03811681146109cb57600080fd5b60008060408385031215610bc957600080fd5b50508035926020909101359150565b805169ffffffffffffffffffff81168114610bf257600080fd5b919050565b600080600080600060a08688031215610c0f57600080fd5b610c1886610bd8565b60208701516040880151606089015192975090955093509150610c3d60808701610bd8565b90509295509295909350565b600060208284031215610c5b57600080fd5b815160ff811681146109cb57600080fd5b634e487b7160e01b600052601160045260246000fd5b60ff8281168282160390811115610c9b57610c9b610c6c565b92915050565b6001815b6001841115610cdc57808504811115610cc057610cc0610c6c565b6001841615610cce57908102905b60019390931c928002610ca5565b935093915050565b600082610cf357506001610c9b565b81610d0057506000610c9b565b8160018114610d165760028114610d2057610d3c565b6001915050610c9b565b60ff841115610d3157610d31610c6c565b50506001821b610c9b565b5060208310610133831016604e8410600b8410161715610d5f575081810a610c9b565b610d6c6000198484610ca1565b8060001904821115610d8057610d80610c6c565b029392505050565b60006109cb60ff841683610ce4565b8082028115828204841417610c9b57610c9b610c6c565b600082610dcb57634e487b7160e01b600052601260045260246000fd5b500490565b80820180821115610c9b57610c9b610c6c565b81810381811115610c9b57610c9b610c6c565b600060208284031215610e0857600080fd5b815180151581146109cb57600080fdfea2646970667358221220b169d517ffc05f501620ee803b3d23c848f36ed1ca97abfa291998ddf60c6f1f64736f6c634300081c0033",
  "devdoc": {
    "details": "Gerencia Cofres (Vaults) para mintar StableToken (aUSD) contra colateral (ETH nativo) de forma sobrecolateralizada. Este  um MVP e omite taxas de estabilidade e liquidaes.",
    "kind": "dev",
    "methods": {
      "depositAndMint(uint256)": {
        "details": "Deposita ETH como colateral e opcionalmente minta aUSD."
      },
      "getCollateralValueUSD(uint256)": {
        "details": "Retorna o valor do colateral em USD (com 18 decimais)."
      },
      "getHealthFactor(address)": {
        "details": "Retorna o fator de sade do cofre. Health Factor = (Colateral_USD * BPS) / (Dvida_USD * Limite_Liquidao) Se HF > 10_000 (BPS), est seguro. Se HF <= 10_000 (BPS), est sujeito a liquidao."
      },
      "getNormalizedPrice()": {
        "details": "Normaliza o preo do orculo para 1e18."
      },
      "owner()": {
        "details": "Returns the address of the current owner."
      },
      "renounceOwnership()": {
        "details": "Leaves the contract without owner. It will not be possible to call `onlyOwner` functions. Can only be called by the current owner. NOTE: Renouncing ownership will leave the contract without an owner, thereby disabling any functionality that is only available to the owner."
      },
      "repayAndWithdraw(uint256,uint256)": {
        "details": "Paga a dvida (aUSD) e opcionalmente retira o colateral (ETH). O usurio DEVE aprovar o aUSD para este contrato primeiro."
      },
      "transferOwnership(address)": {
        "details": "Transfers ownership of the contract to a new account (`newOwner`). Can only be called by the current owner."
      }
    },
    "title": "VaultManager",
    "version": 1
  },
  "userdoc": {
    "kind": "user",
    "methods": {},
    "version": 1
  },
  "storageLayout": {
    "storage": [
      {
        "astId": 169,
        "contract": "contracts/VaultManager.sol:VaultManager",
        "label": "_status",
        "offset": 0,
        "slot": "0",
        "type": "t_uint256"
      },
      {
        "astId": 53,
        "contract": "contracts/VaultManager.sol:VaultManager",
        "label": "_owner",
        "offset": 0,
        "slot": "1",
        "type": "t_address"
      },
      {
        "astId": 4893,
        "contract": "contracts/VaultManager.sol:VaultManager",
        "label": "stable",
        "offset": 0,
        "slot": "2",
        "type": "t_contract(StableToken)4874"
      },
      {
        "astId": 4896,
        "contract": "contracts/VaultManager.sol:VaultManager",
        "label": "priceFeed",
        "offset": 0,
        "slot": "3",
        "type": "t_contract(AggregatorV3Interface)45"
      },
      {
        "astId": 4901,
        "contract": "contracts/VaultManager.sol:VaultManager",
        "label": "vaults",
        "offset": 0,
        "slot": "4",
        "type": "t_mapping(t_address,t_struct(Vault)4906_storage)"
      }
    ],
    "types": {
      "t_address": {
        "encoding": "inplace",
        "label": "address",
        "numberOfBytes": "20"
      },
      "t_contract(AggregatorV3Interface)45": {
        "encoding": "inplace",
        "label": "contract AggregatorV3Interface",
        "numberOfBytes": "20"
      },
      "t_contract(StableToken)4874": {
        "encoding": "inplace",
        "label": "contract StableToken",
        "numberOfBytes": "20"
      },
      "t_mapping(t_address,t_struct(Vault)4906_storage)": {
        "encoding": "mapping",
        "key": "t_address",
        "label": "mapping(address => struct VaultManager.Vault)",
        "numberOfBytes": "32",
        "value": "t_struct(Vault)4906_storage"
      },
      "t_struct(Vault)4906_storage": {
        "encoding": "inplace",
        "label": "struct VaultManager.Vault",
        "members": [
          {
            "astId": 4903,
            "contract": "contracts/VaultManager.sol:VaultManager",
            "label": "ethCollateral",
            "offset": 0,
            "slot": "0",
            "type": "t_uint256"
          },
          {
            "astId": 4905,
            "contract": "contracts/VaultManager.sol:VaultManager",
            "label": "stableDebt",
            "offset": 0,
            "slot": "1",
            "type": "t_uint256"
          }
        ],
        "numberOfBytes": "64"
      },
      "t_uint256": {
        "encoding": "inplace",
        "label": "uint256",
        "numberOfBytes": "32"
      }
    }
  }
}