{
  "address": "0xc2Cb12172c5cbbf94D7492998f3b3a53ec822133",
  "abi": [
    {
      "inputs": [
        {
          "internalType": "address",
          "name": "_initialFeeRecipient",
          "type": "address"
        },
        {
          "internalType": "uint256",
          "name": "_initialFeeBps",
          "type": "uint256"
        }
      ],
      "stateMutability": "nonpayable",
      "type": "constructor"
    },
    {
      "inputs": [],
      "name": "InvalidKMSSignatures",
      "type": "error"
    },
    {
      "anonymous": false,
      "inputs": [
        {
          "indexed": true,
          "internalType": "uint256",
          "name": "id",
          "type": "uint256"
        }
      ],
      "name": "AuctionCancelled",
      "type": "event"
    },
    {
      "anonymous": false,
      "inputs": [
        {
          "indexed": true,
          "internalType": "uint256",
          "name": "id",
          "type": "uint256"
        },
        {
          "indexed": false,
          "internalType": "address",
          "name": "seller",
          "type": "address"
        },
        {
          "indexed": false,
          "internalType": "address",
          "name": "nftContract",
          "type": "address"
        },
        {
          "indexed": false,
          "internalType": "uint256",
          "name": "tokenId",
          "type": "uint256"
        },
        {
          "indexed": false,
          "internalType": "uint64",
          "name": "biddingEnds",
          "type": "uint64"
        }
      ],
      "name": "AuctionCreated",
      "type": "event"
    },
    {
      "anonymous": false,
      "inputs": [
        {
          "indexed": true,
          "internalType": "uint256",
          "name": "id",
          "type": "uint256"
        },
        {
          "indexed": false,
          "internalType": "address",
          "name": "winner",
          "type": "address"
        },
        {
          "indexed": false,
          "internalType": "uint256",
          "name": "amount",
          "type": "uint256"
        },
        {
          "indexed": false,
          "internalType": "uint256",
          "name": "fee",
          "type": "uint256"
        }
      ],
      "name": "AuctionFinalized",
      "type": "event"
    },
    {
      "anonymous": false,
      "inputs": [
        {
          "indexed": true,
          "internalType": "uint256",
          "name": "auctionId",
          "type": "uint256"
        },
        {
          "indexed": false,
          "internalType": "bytes32",
          "name": "highestBidHandle",
          "type": "bytes32"
        },
        {
          "indexed": false,
          "internalType": "bytes32",
          "name": "winnerIndexHandle",
          "type": "bytes32"
        }
      ],
      "name": "DecryptionRequested",
      "type": "event"
    },
    {
      "anonymous": false,
      "inputs": [
        {
          "indexed": true,
          "internalType": "uint256",
          "name": "id",
          "type": "uint256"
        },
        {
          "indexed": true,
          "internalType": "address",
          "name": "bidder",
          "type": "address"
        },
        {
          "indexed": false,
          "internalType": "uint256",
          "name": "deposit",
          "type": "uint256"
        }
      ],
      "name": "EncryptedBidSubmitted",
      "type": "event"
    },
    {
      "anonymous": false,
      "inputs": [
        {
          "indexed": false,
          "internalType": "uint256",
          "name": "newFeeBps",
          "type": "uint256"
        }
      ],
      "name": "FeeBpsChanged",
      "type": "event"
    },
    {
      "anonymous": false,
      "inputs": [
        {
          "indexed": false,
          "internalType": "address",
          "name": "newRecipient",
          "type": "address"
        }
      ],
      "name": "FeeRecipientChanged",
      "type": "event"
    },
    {
      "anonymous": false,
      "inputs": [
        {
          "indexed": true,
          "internalType": "address",
          "name": "previousOwner",
          "type": "address"
        },
        {
          "indexed": true,
          "internalType": "address",
          "name": "newOwner",
          "type": "address"
        }
      ],
      "name": "OwnershipTransferred",
      "type": "event"
    },
    {
      "anonymous": false,
      "inputs": [
        {
          "indexed": true,
          "internalType": "uint256",
          "name": "id",
          "type": "uint256"
        },
        {
          "indexed": true,
          "internalType": "address",
          "name": "to",
          "type": "address"
        },
        {
          "indexed": false,
          "internalType": "uint256",
          "name": "amount",
          "type": "uint256"
        }
      ],
      "name": "RefundIssued",
      "type": "event"
    },
    {
      "inputs": [],
      "name": "BPS",
      "outputs": [
        {
          "internalType": "uint256",
          "name": "",
          "type": "uint256"
        }
      ],
      "stateMutability": "view",
      "type": "function"
    },
    {
      "inputs": [
        {
          "internalType": "uint256",
          "name": "",
          "type": "uint256"
        },
        {
          "internalType": "uint256",
          "name": "",
          "type": "uint256"
        }
      ],
      "name": "auctionBids",
      "outputs": [
        {
          "internalType": "address",
          "name": "bidder",
          "type": "address"
        },
        {
          "internalType": "euint32",
          "name": "encryptedAmount",
          "type": "bytes32"
        },
        {
          "internalType": "uint256",
          "name": "deposit",
          "type": "uint256"
        }
      ],
      "stateMutability": "view",
      "type": "function"
    },
    {
      "inputs": [
        {
          "internalType": "uint256",
          "name": "",
          "type": "uint256"
        }
      ],
      "name": "auctions",
      "outputs": [
        {
          "internalType": "address",
          "name": "seller",
          "type": "address"
        },
        {
          "internalType": "address",
          "name": "nftContract",
          "type": "address"
        },
        {
          "internalType": "uint256",
          "name": "tokenId",
          "type": "uint256"
        },
        {
          "internalType": "address",
          "name": "stableToken",
          "type": "address"
        },
        {
          "internalType": "uint64",
          "name": "biddingEnds",
          "type": "uint64"
        },
        {
          "internalType": "enum AuctionManagerFHE.AuctionStatus",
          "name": "status",
          "type": "uint8"
        },
        {
          "internalType": "uint256",
          "name": "minDeposit",
          "type": "uint256"
        },
        {
          "internalType": "euint32",
          "name": "highestBid",
          "type": "bytes32"
        },
        {
          "internalType": "euint256",
          "name": "winnerIndex",
          "type": "bytes32"
        }
      ],
      "stateMutability": "view",
      "type": "function"
    },
    {
      "inputs": [
        {
          "internalType": "uint256",
          "name": "auctionId",
          "type": "uint256"
        }
      ],
      "name": "cancelAuction",
      "outputs": [],
      "stateMutability": "nonpayable",
      "type": "function"
    },
    {
      "inputs": [
        {
          "internalType": "address",
          "name": "nftContract",
          "type": "address"
        },
        {
          "internalType": "uint256",
          "name": "tokenId",
          "type": "uint256"
        },
        {
          "internalType": "address",
          "name": "stableToken",
          "type": "address"
        },
        {
          "internalType": "uint64",
          "name": "biddingEnds",
          "type": "uint64"
        },
        {
          "internalType": "uint256",
          "name": "minDeposit",
          "type": "uint256"
        }
      ],
      "name": "createAuction",
      "outputs": [
        {
          "internalType": "uint256",
          "name": "",
          "type": "uint256"
        }
      ],
      "stateMutability": "nonpayable",
      "type": "function"
    },
    {
      "inputs": [],
      "name": "feeBps",
      "outputs": [
        {
          "internalType": "uint256",
          "name": "",
          "type": "uint256"
        }
      ],
      "stateMutability": "view",
      "type": "function"
    },
    {
      "inputs": [],
      "name": "feeRecipient",
      "outputs": [
        {
          "internalType": "address",
          "name": "",
          "type": "address"
        }
      ],
      "stateMutability": "view",
      "type": "function"
    },
    {
      "inputs": [
        {
          "internalType": "uint256",
          "name": "auctionId",
          "type": "uint256"
        }
      ],
      "name": "finalizeAuction",
      "outputs": [],
      "stateMutability": "nonpayable",
      "type": "function"
    },
    {
      "inputs": [
        {
          "internalType": "uint256",
          "name": "auctionId",
          "type": "uint256"
        },
        {
          "internalType": "bytes",
          "name": "decryptedData",
          "type": "bytes"
        },
        {
          "internalType": "bytes",
          "name": "decryptionProof",
          "type": "bytes"
        }
      ],
      "name": "fulfillAuction",
      "outputs": [],
      "stateMutability": "nonpayable",
      "type": "function"
    },
    {
      "inputs": [],
      "name": "nextAuction",
      "outputs": [
        {
          "internalType": "uint256",
          "name": "",
          "type": "uint256"
        }
      ],
      "stateMutability": "view",
      "type": "function"
    },
    {
      "inputs": [],
      "name": "owner",
      "outputs": [
        {
          "internalType": "address",
          "name": "",
          "type": "address"
        }
      ],
      "stateMutability": "view",
      "type": "function"
    },
    {
      "inputs": [
        {
          "internalType": "uint256",
          "name": "auctionId",
          "type": "uint256"
        }
      ],
      "name": "refundLosers",
      "outputs": [],
      "stateMutability": "nonpayable",
      "type": "function"
    },
    {
      "inputs": [],
      "name": "renounceOwnership",
      "outputs": [],
      "stateMutability": "nonpayable",
      "type": "function"
    },
    {
      "inputs": [
        {
          "internalType": "uint256",
          "name": "_newFeeBps",
          "type": "uint256"
        }
      ],
      "name": "setFeeBps",
      "outputs": [],
      "stateMutability": "nonpayable",
      "type": "function"
    },
    {
      "inputs": [
        {
          "internalType": "address",
          "name": "_newRecipient",
          "type": "address"
        }
      ],
      "name": "setFeeRecipient",
      "outputs": [],
      "stateMutability": "nonpayable",
      "type": "function"
    },
    {
      "inputs": [
        {
          "internalType": "uint256",
          "name": "auctionId",
          "type": "uint256"
        },
        {
          "internalType": "externalEuint32",
          "name": "bidHandle",
          "type": "bytes32"
        },
        {
          "internalType": "bytes",
          "name": "bidProof",
          "type": "bytes"
        },
        {
          "internalType": "uint256",
          "name": "depositAmount",
          "type": "uint256"
        }
      ],
      "name": "submitEncryptedBid",
      "outputs": [],
      "stateMutability": "nonpayable",
      "type": "function"
    },
    {
      "inputs": [
        {
          "internalType": "address",
          "name": "newOwner",
          "type": "address"
        }
      ],
      "name": "transferOwnership",
      "outputs": [],
      "stateMutability": "nonpayable",
      "type": "function"
    }
  ],
  "transactionHash": "0xe80a3cd5464c07a736bf1cec6580b9f407e838d8ec82b6461bd66edee268fc88",
  "args": [
    "0x126F314e83683Ff89d1d8CBc1dF5462AA83C011d",
    250
  ],
  "numDeployments": 1,
  "solcInputHash": "1a2194ba66d6b1531403b8de29ef8638",
  "bytecode": "0x608060405234801561001057600080fd5b5060405161220c38038061220c83398101604081905261002f91610154565b600160005561003d33610102565b6001600160a01b0382166100985760405162461bcd60e51b815260206004820181905260248201527f526563697069656e742063616e6e6f74206265207a65726f206164647265737360448201526064015b60405180910390fd5b6103e88111156100d95760405162461bcd60e51b815260206004820152600c60248201526b08ccaca40e8dede40d0d2ced60a31b604482015260640161008f565b600280546001600160a01b0319166001600160a01b03939093169290921790915560035561018e565b600180546001600160a01b038381166001600160a01b0319831681179093556040519116919082907f8be0079c531659141344cd1fd0a4f28419497f9722a3daafe3b4186f6b6457e090600090a35050565b6000806040838503121561016757600080fd5b82516001600160a01b038116811461017e57600080fd5b6020939093015192949293505050565b61206f8061019d6000396000f3fe608060405234801561001057600080fd5b506004361061010b5760003560e01c8063720abfc3116100a257806396b5a7551161007157806396b5a75514610293578063a4669df1146102a6578063e74b981b146102b9578063e8083863146102cc578063f2fde38b146102df57600080fd5b8063720abfc31461024957806372c27b621461025c578063739b665d1461026f5780638da5cb5b1461028257600080fd5b8063571a26a0116100de578063571a26a0146101755780635f93de49146102005780636347a37714610238578063715018a61461024157600080fd5b8063249d39e91461011057806324a9d8531461012c5780633e0aeb2114610135578063469048401461014a575b600080fd5b61011961271081565b6040519081526020015b60405180910390f35b61011960035481565b610148610143366004611bb6565b6102f2565b005b60025461015d906001600160a01b031681565b6040516001600160a01b039091168152602001610123565b6101eb610183366004611c33565b600560208190526000918252604090912080546001820154600283015460038401546004850154958501546006909501546001600160a01b0394851696938516959294821693600160a01b83046001600160401b031693600160e01b90930460ff1692909189565b60405161012399989796959493929190611c62565b61021361020e366004611cd0565b6106e9565b604080516001600160a01b039094168452602084019290925290820152606001610123565b61011960045481565b610148610735565b610148610257366004611c33565b610749565b61014861026a366004611c33565b610899565b61014861027d366004611cf2565b61091e565b6001546001600160a01b031661015d565b6101486102a1366004611c33565b610b41565b6101196102b4366004611d68565b610d62565b6101486102c7366004611dcb565b610fe4565b6101486102da366004611c33565b611090565b6101486102ed366004611dcb565b6112a5565b6102fa61131b565b600085815260056020526040902060016003820154600160e01b900460ff16600281111561032a5761032a611c4c565b1461037c5760405162461bcd60e51b815260206004820152601760248201527f4e6f74206177616974696e672064656372797074696f6e00000000000000000060448201526064015b60405180910390fd5b6040805160028082526060820183526000926020830190803683375050506005830154909150816000815181106103b5576103b5611de6565b60209081029190910101526006820154816001815181106103d8576103d8611de6565b602002602001018181525050600061045a8288888080601f01602080910402602001604051908101604052809392919081815260200183838082843760009201919091525050604080516020601f8c018190048102820181019092528a815292508a915089908190840183828082843760009201919091525061137492505050565b90508061047a5760405163cf6c44e960e01b815260040160405180910390fd5b600080610489888a018a611cd0565b60008c8152600660205260408120805493955091935090918290849081106104b3576104b3611de6565b6000918252602082206003909102015483546001600160a01b0390911692508390859081106104e4576104e4611de6565b9060005260206000209060030201600201549050848110156105545760405162461bcd60e51b815260206004820152602360248201527f57696e6e6572206465706f73697420696e73756666696369656e7420666f7220604482015262189a5960ea1b6064820152608401610373565b6003546000908690156105aa57612710600354886105729190611e12565b61057c9190611e29565b91506105888288611e4b565b60025460038c01549192506105aa916001600160a01b03908116911684611428565b895460038b01546105c8916001600160a01b03918216911683611428565b60018a015460028b01546040516323b872dd60e01b81526001600160a01b03909216916323b872dd916106019130918991600401611e5e565b600060405180830381600087803b15801561061b57600080fd5b505af115801561062f573d6000803e3d6000fd5b505050508685878154811061064657610646611de6565b906000526020600020906003020160020160008282546106669190611e4b565b909155505060038a018054600160e11b60ff60e01b19909116179055604080516001600160a01b0386168152602081018990529081018390528f907f8fe48cb2788518c502edabdec52a7efc6f23c59ea723e715f57d5fb39990b3269060600160405180910390a2505050505050505050506106e26001600055565b5050505050565b6006602052816000526040600020818154811061070557600080fd5b60009182526020909120600390910201805460018201546002909201546001600160a01b03909116935090915083565b61073d611490565b61074760006114ea565b565b61075161131b565b600081815260056020526040902060026003820154600160e01b900460ff16600281111561078157610781611c4c565b146107bb5760405162461bcd60e51b815260206004820152600a6024820152691b9bdd0818db1bdcd95960b21b6044820152606401610373565b600082815260066020526040812054905b818110156108895760008481526006602052604081208054839081106107f4576107f4611de6565b90600052602060002090600302019050600081600201549050600081111561087f57600060028301558154600386015461083b916001600160a01b03918216911683611428565b81546040518281526001600160a01b039091169087907f7a482fdeb6bc9a1376f597068a214a7a39472bb2eff1b8cad21ba04f49ddca1b9060200160405180910390a35b50506001016107cc565b5050506108966001600055565b50565b6108a1611490565b6103e88111156108e25760405162461bcd60e51b815260206004820152600c60248201526b0a8c2f040e8dede40d0d2ced60a31b6044820152606401610373565b60038190556040518181527f3bd6271cb468e808f81b31b8a5edb1e7a7cbf075b1b075e40ecb51fd0135d738906020015b60405180910390a150565b61092661131b565b6000858152600560205260408120906003820154600160e01b900460ff16600281111561095557610955611c4c565b146109955760405162461bcd60e51b815260206004820152601060248201526f20bab1ba34b7b7103737ba1037b832b760811b6044820152606401610373565b6003810154600160a01b90046001600160401b031642106109e95760405162461bcd60e51b815260206004820152600e60248201526d189a59191a5b99c818db1bdcd95960921b6044820152606401610373565b8060040154821015610a315760405162461bcd60e51b815260206004820152601160248201527019195c1bdcda5d081d1bdbc81cdb585b1b607a1b6044820152606401610373565b6003810154610a4b906001600160a01b031633308561153c565b6000610a8d8686868080601f01602080910402602001604051908101604052809392919081815260200183838082843760009201919091525061156392505050565b60008881526006602090815260408083208151606081018352338082528185018781528285018b8152845460018082018755958952978790209351600390980290930180546001600160a01b0319166001600160a01b0390981697909717875551928601929092555160029094019390935551868152929350909189917feab3dbd265b4117aa3d918ffbcea2108c14cd89f4e4a259de16cb60ef075af9c910160405180910390a350506106e26001600055565b610b4961131b565b60008181526005602052604090206003810154600160a01b90046001600160401b0316421015610baf5760405162461bcd60e51b8152602060048201526011602482015270189a59191a5b99c81b9bdd08195b991959607a1b6044820152606401610373565b60006003820154600160e01b900460ff166002811115610bd157610bd1611c4c565b14610c125760405162461bcd60e51b8152602060048201526011602482015270185b1c9958591e48199a5b985b1a5e9959607a1b6044820152606401610373565b80546001600160a01b03163314610c585760405162461bcd60e51b815260206004820152600a6024820152692737ba1039b2b63632b960b11b6044820152606401610373565b60008281526006602052604090205415610ca75760405162461bcd60e51b815260206004820152601060248201526f41756374696f6e20686173206269647360801b6044820152606401610373565b60038101805460ff60e01b1916600160e11b1790556001810154815460028301546040516323b872dd60e01b81526001600160a01b03938416936323b872dd93610cfa9330939290911691600401611e5e565b600060405180830381600087803b158015610d1457600080fd5b505af1158015610d28573d6000803e3d6000fd5b50506040518492507f2809c7e17bf978fbc7194c0a694b638c4215e9140cacc6c38ca36010b45697df9150600090a2506108966001600055565b6000610d6c61131b565b42836001600160401b031611610db95760405162461bcd60e51b8152602060048201526012602482015271656e64206d7573742062652066757475726560701b6044820152606401610373565b6004805460009182610dca83611e82565b9091555060408051610120810182523381526001600160a01b038a8116602083015291810189905290871660608201526001600160401b038616608082015290915060a0810160008152602001848152602001610e27600061157a565b8152602001610e36600061158d565b9052600082815260056020908152604091829020835181546001600160a01b039182166001600160a01b031991821617835592850151600183018054918316919094161790925591830151600280840191909155606084015160038401805460808701516001600160401b0316600160a01b026001600160e01b031990911692909416919091179290921780835560a0850151929160ff60e01b1990911690600160e01b908490811115610eec57610eec611c4c565b021790555060c0820151816004015560e082015181600501556101008201518160060155905050866001600160a01b03166323b872dd3330896040518463ffffffff1660e01b8152600401610f4393929190611e5e565b600060405180830381600087803b158015610f5d57600080fd5b505af1158015610f71573d6000803e3d6000fd5b5050604080513381526001600160a01b038b1660208201529081018990526001600160401b03871660608201528392507faaef9745753f3d8cdffb6538ab2ee64840b255460992e790f03e919e172cff88915060800160405180910390a29050610fdb6001600055565b95945050505050565b610fec611490565b6001600160a01b0381166110425760405162461bcd60e51b815260206004820181905260248201527f526563697069656e742063616e6e6f74206265207a65726f20616464726573736044820152606401610373565b600280546001600160a01b0319166001600160a01b0383169081179091556040519081527f167cccccc6e9b2892a740ec13fc1e51d3de8ea384f25bd87fee7412d588637e290602001610913565b61109861131b565b60008181526005602052604090206003810154600160a01b90046001600160401b03164210156110fe5760405162461bcd60e51b8152602060048201526011602482015270189a59191a5b99c81b9bdd08195b991959607a1b6044820152606401610373565b60006003820154600160e01b900460ff16600281111561112057611120611c4c565b146111615760405162461bcd60e51b8152602060048201526011602482015270185b1c9958591e48199a5b985b1a5e9959607a1b6044820152606401610373565b60008281526006602052604090208054806111af5760405162461bcd60e51b815260206004820152600e60248201526d139bc8189a591cc81c1b1858d95960921b6044820152606401610373565b60006111bb600061157a565b905060006111c9600061158d565b905060005b838110156112385760008582815481106111ea576111ea611de6565b9060005260206000209060030201600101549050600061120a828661159a565b90506112178183876115cc565b945061122c816112268561158d565b86611617565b935050506001016111ce565b50600585018290556006850181905560038501805460ff60e01b1916600160e01b1790556040805183815260208101839052815188927fc8c52dc2c32bafa6df8674fef87279b5c14d6078ef5cc1edda46f8b1741c85a7928290030190a250505050506108966001600055565b6112ad611490565b6001600160a01b0381166113125760405162461bcd60e51b815260206004820152602660248201527f4f776e61626c653a206e6577206f776e657220697320746865207a65726f206160448201526564647265737360d01b6064820152608401610373565b610896816114ea565b60026000540361136d5760405162461bcd60e51b815260206004820152601f60248201527f5265656e7472616e637947756172643a207265656e7472616e742063616c6c006044820152606401610373565b6002600055565b7f9e7b61f58c47dc699ac88507c4f5bb9f121c03808c5676a8078fe583e4649702546040516378542ead60e01b815260009160008051602061201a833981519152916001600160a01b03909116906378542ead906113da90889088908890600401611eeb565b6020604051808303816000875af11580156113f9573d6000803e3d6000fd5b505050506040513d601f19601f8201168201806040525081019061141d9190611f4e565b9150505b9392505050565b6040516001600160a01b03831660248201526044810182905261148b90849063a9059cbb60e01b906064015b60408051601f198184030181529190526020810180516001600160e01b03166001600160e01b03199093169290921790915261164c565b505050565b6001546001600160a01b031633146107475760405162461bcd60e51b815260206004820181905260248201527f4f776e61626c653a2063616c6c6572206973206e6f7420746865206f776e65726044820152606401610373565b600180546001600160a01b038381166001600160a01b0319831681179093556040519116919082907f8be0079c531659141344cd1fd0a4f28419497f9722a3daafe3b4186f6b6457e090600090a35050565b61155d846323b872dd60e01b85858560405160240161145493929190611e5e565b50505050565b600061157183836004611721565b90505b92915050565b60006115748263ffffffff166004611838565b6000611574826008611838565b6000826115ae576115ab600061157a565b92505b816115c0576115bd600061157a565b91505b611571838360006118df565b6000836115e0576115dd600061199b565b93505b826115f2576115ef600061157a565b92505b8161160457611601600061157a565b91505b61160f8484846119b9565b949350505050565b60008361162b57611628600061199b565b93505b8261163d5761163a600061158d565b92505b8161160457611601600061158d565b60006116a1826040518060400160405280602081526020017f5361666545524332303a206c6f772d6c6576656c2063616c6c206661696c6564815250856001600160a01b0316611a4b9092919063ffffffff16565b90508051600014806116c25750808060200190518101906116c29190611f4e565b61148b5760405162461bcd60e51b815260206004820152602a60248201527f5361666545524332303a204552433230206f7065726174696f6e20646964206e6044820152691bdd081cdd58d8d9595960b21b6064820152608401610373565b7f9e7b61f58c47dc699ac88507c4f5bb9f121c03808c5676a8078fe583e46497015460405163045fc19560e11b815260009160008051602061201a833981519152916001600160a01b03909116906308bf832a90611789908890339089908990600401611f84565b6020604051808303816000875af11580156117a8573d6000803e3d6000fd5b505050506040513d601f19601f820116820180604052508101906117cc9190611fbd565b8154604051630f8e573b60e21b8152600481018390523360248201529193506001600160a01b031690633e395cec90604401600060405180830381600087803b15801561181857600080fd5b505af115801561182c573d6000803e3d6000fd5b50505050509392505050565b7f9e7b61f58c47dc699ac88507c4f5bb9f121c03808c5676a8078fe583e464970154604051639cd07acb60e01b815260009160008051602061201a833981519152916001600160a01b0390911690639cd07acb9061189c9087908790600401611fd6565b6020604051808303816000875af11580156118bb573d6000803e3d6000fd5b505050506040513d601f19601f8201168201806040525081019061160f9190611fbd565b60008082156118f35750600160f81b6118f7565b5060005b600060008051602061201a83398151915260018101546040516385362ee760e01b815260048101899052602481018890526001600160f81b0319851660448201529192506001600160a01b0316906385362ee7906064016020604051808303816000875af115801561196d573d6000803e3d6000fd5b505050506040513d601f19601f820116820180604052508101906119919190611fbd565b9695505050505050565b6000611574826119ac5760006119af565b60015b60ff166000611838565b60008060008051602061201a8339815191526001810154604051637702dcff60e01b81526004810188905260248101879052604481018690529192506001600160a01b031690637702dcff906064016020604051808303816000875af1158015611a27573d6000803e3d6000fd5b505050506040513d601f19601f8201168201806040525081019061141d9190611fbd565b606061160f848460008585600080866001600160a01b03168587604051611a729190611fea565b60006040518083038185875af1925050503d8060008114611aaf576040519150601f19603f3d011682016040523d82523d6000602084013e611ab4565b606091505b5091509150611ac587838387611ad0565b979650505050505050565b60608315611b3f578251600003611b38576001600160a01b0385163b611b385760405162461bcd60e51b815260206004820152601d60248201527f416464726573733a2063616c6c20746f206e6f6e2d636f6e74726163740000006044820152606401610373565b508161160f565b61160f8383815115611b545781518083602001fd5b8060405162461bcd60e51b81526004016103739190612006565b60008083601f840112611b8057600080fd5b5081356001600160401b03811115611b9757600080fd5b602083019150836020828501011115611baf57600080fd5b9250929050565b600080600080600060608688031215611bce57600080fd5b8535945060208601356001600160401b03811115611beb57600080fd5b611bf788828901611b6e565b90955093505060408601356001600160401b03811115611c1657600080fd5b611c2288828901611b6e565b969995985093965092949392505050565b600060208284031215611c4557600080fd5b5035919050565b634e487b7160e01b600052602160045260246000fd5b6001600160a01b038a81168252898116602083015260408201899052871660608201526001600160401b0386166080820152610120810160038610611ca957611ca9611c4c565b8560a08301528460c08301528360e0830152826101008301529a9950505050505050505050565b60008060408385031215611ce357600080fd5b50508035926020909101359150565b600080600080600060808688031215611d0a57600080fd5b853594506020860135935060408601356001600160401b03811115611d2e57600080fd5b611d3a88828901611b6e565b96999598509660600135949350505050565b80356001600160a01b0381168114611d6357600080fd5b919050565b600080600080600060a08688031215611d8057600080fd5b611d8986611d4c565b945060208601359350611d9e60408701611d4c565b925060608601356001600160401b0381168114611dba57600080fd5b949793965091946080013592915050565b600060208284031215611ddd57600080fd5b61157182611d4c565b634e487b7160e01b600052603260045260246000fd5b634e487b7160e01b600052601160045260246000fd5b808202811582820484141761157457611574611dfc565b600082611e4657634e487b7160e01b600052601260045260246000fd5b500490565b8181038181111561157457611574611dfc565b6001600160a01b039384168152919092166020820152604081019190915260600190565b600060018201611e9457611e94611dfc565b5060010190565b60005b83811015611eb6578181015183820152602001611e9e565b50506000910152565b60008151808452611ed7816020860160208601611e9b565b601f01601f19169290920160200192915050565b6060808252845190820181905260009060208601906080840190835b81811015611f25578351835260209384019390920191600101611f07565b50508381036020850152611f398187611ebf565b91505082810360408401526119918185611ebf565b600060208284031215611f6057600080fd5b8151801515811461142157600080fd5b60548110611f8057611f80611c4c565b9052565b8481526001600160a01b0384166020820152608060408201819052600090611fae90830185611ebf565b9050610fdb6060830184611f70565b600060208284031215611fcf57600080fd5b5051919050565b828152604081016114216020830184611f70565b60008251611ffc818460208701611e9b565b9190910192915050565b6020815260006115716020830184611ebf56fe9e7b61f58c47dc699ac88507c4f5bb9f121c03808c5676a8078fe583e4649700a264697066735822122097d71644e5c3faa8b909aa8038f0b6ad95bb0dd7ba19f3fd5aa97a0c2048fd2d64736f6c634300081c0033",
  "devdoc": {
    "kind": "dev",
    "methods": {
      "owner()": {
        "details": "Returns the address of the current owner."
      },
      "renounceOwnership()": {
        "details": "Leaves the contract without owner. It will not be possible to call `onlyOwner` functions. Can only be called by the current owner. NOTE: Renouncing ownership will leave the contract without an owner, thereby disabling any functionality that is only available to the owner."
      },
      "transferOwnership(address)": {
        "details": "Transfers ownership of the contract to a new account (`newOwner`). Can only be called by the current owner."
      }
    },
    "version": 1
  },
  "userdoc": {
    "errors": {
      "InvalidKMSSignatures()": [
        {
          "notice": "Returned if the returned KMS signatures are not valid."
        }
      ]
    },
    "kind": "user",
    "methods": {},
    "version": 1
  },
  "storageLayout": {
    "storage": [
      {
        "astId": 39060,
        "contract": "contracts/AuctionManagerFHE.sol:AuctionManagerFHE",
        "label": "_status",
        "offset": 0,
        "slot": "0",
        "type": "t_uint256"
      },
      {
        "astId": 38944,
        "contract": "contracts/AuctionManagerFHE.sol:AuctionManagerFHE",
        "label": "_owner",
        "offset": 0,
        "slot": "1",
        "type": "t_address"
      },
      {
        "astId": 40110,
        "contract": "contracts/AuctionManagerFHE.sol:AuctionManagerFHE",
        "label": "feeRecipient",
        "offset": 0,
        "slot": "2",
        "type": "t_address"
      },
      {
        "astId": 40112,
        "contract": "contracts/AuctionManagerFHE.sol:AuctionManagerFHE",
        "label": "feeBps",
        "offset": 0,
        "slot": "3",
        "type": "t_uint256"
      },
      {
        "astId": 40117,
        "contract": "contracts/AuctionManagerFHE.sol:AuctionManagerFHE",
        "label": "nextAuction",
        "offset": 0,
        "slot": "4",
        "type": "t_uint256"
      },
      {
        "astId": 40156,
        "contract": "contracts/AuctionManagerFHE.sol:AuctionManagerFHE",
        "label": "auctions",
        "offset": 0,
        "slot": "5",
        "type": "t_mapping(t_uint256,t_struct(Auction)40143_storage)"
      },
      {
        "astId": 40162,
        "contract": "contracts/AuctionManagerFHE.sol:AuctionManagerFHE",
        "label": "auctionBids",
        "offset": 0,
        "slot": "6",
        "type": "t_mapping(t_uint256,t_array(t_struct(EncryptedBid)40151_storage)dyn_storage)"
      }
    ],
    "types": {
      "t_address": {
        "encoding": "inplace",
        "label": "address",
        "numberOfBytes": "20"
      },
      "t_array(t_struct(EncryptedBid)40151_storage)dyn_storage": {
        "base": "t_struct(EncryptedBid)40151_storage",
        "encoding": "dynamic_array",
        "label": "struct AuctionManagerFHE.EncryptedBid[]",
        "numberOfBytes": "32"
      },
      "t_enum(AuctionStatus)40121": {
        "encoding": "inplace",
        "label": "enum AuctionManagerFHE.AuctionStatus",
        "numberOfBytes": "1"
      },
      "t_mapping(t_uint256,t_array(t_struct(EncryptedBid)40151_storage)dyn_storage)": {
        "encoding": "mapping",
        "key": "t_uint256",
        "label": "mapping(uint256 => struct AuctionManagerFHE.EncryptedBid[])",
        "numberOfBytes": "32",
        "value": "t_array(t_struct(EncryptedBid)40151_storage)dyn_storage"
      },
      "t_mapping(t_uint256,t_struct(Auction)40143_storage)": {
        "encoding": "mapping",
        "key": "t_uint256",
        "label": "mapping(uint256 => struct AuctionManagerFHE.Auction)",
        "numberOfBytes": "32",
        "value": "t_struct(Auction)40143_storage"
      },
      "t_struct(Auction)40143_storage": {
        "encoding": "inplace",
        "label": "struct AuctionManagerFHE.Auction",
        "members": [
          {
            "astId": 40123,
            "contract": "contracts/AuctionManagerFHE.sol:AuctionManagerFHE",
            "label": "seller",
            "offset": 0,
            "slot": "0",
            "type": "t_address"
          },
          {
            "astId": 40125,
            "contract": "contracts/AuctionManagerFHE.sol:AuctionManagerFHE",
            "label": "nftContract",
            "offset": 0,
            "slot": "1",
            "type": "t_address"
          },
          {
            "astId": 40127,
            "contract": "contracts/AuctionManagerFHE.sol:AuctionManagerFHE",
            "label": "tokenId",
            "offset": 0,
            "slot": "2",
            "type": "t_uint256"
          },
          {
            "astId": 40129,
            "contract": "contracts/AuctionManagerFHE.sol:AuctionManagerFHE",
            "label": "stableToken",
            "offset": 0,
            "slot": "3",
            "type": "t_address"
          },
          {
            "astId": 40131,
            "contract": "contracts/AuctionManagerFHE.sol:AuctionManagerFHE",
            "label": "biddingEnds",
            "offset": 20,
            "slot": "3",
            "type": "t_uint64"
          },
          {
            "astId": 40134,
            "contract": "contracts/AuctionManagerFHE.sol:AuctionManagerFHE",
            "label": "status",
            "offset": 28,
            "slot": "3",
            "type": "t_enum(AuctionStatus)40121"
          },
          {
            "astId": 40136,
            "contract": "contracts/AuctionManagerFHE.sol:AuctionManagerFHE",
            "label": "minDeposit",
            "offset": 0,
            "slot": "4",
            "type": "t_uint256"
          },
          {
            "astId": 40139,
            "contract": "contracts/AuctionManagerFHE.sol:AuctionManagerFHE",
            "label": "highestBid",
            "offset": 0,
            "slot": "5",
            "type": "t_userDefinedValueType(euint32)41001"
          },
          {
            "astId": 40142,
            "contract": "contracts/AuctionManagerFHE.sol:AuctionManagerFHE",
            "label": "winnerIndex",
            "offset": 0,
            "slot": "6",
            "type": "t_userDefinedValueType(euint256)41057"
          }
        ],
        "numberOfBytes": "224"
      },
      "t_struct(EncryptedBid)40151_storage": {
        "encoding": "inplace",
        "label": "struct AuctionManagerFHE.EncryptedBid",
        "members": [
          {
            "astId": 40145,
            "contract": "contracts/AuctionManagerFHE.sol:AuctionManagerFHE",
            "label": "bidder",
            "offset": 0,
            "slot": "0",
            "type": "t_address"
          },
          {
            "astId": 40148,
            "contract": "contracts/AuctionManagerFHE.sol:AuctionManagerFHE",
            "label": "encryptedAmount",
            "offset": 0,
            "slot": "1",
            "type": "t_userDefinedValueType(euint32)41001"
          },
          {
            "astId": 40150,
            "contract": "contracts/AuctionManagerFHE.sol:AuctionManagerFHE",
            "label": "deposit",
            "offset": 0,
            "slot": "2",
            "type": "t_uint256"
          }
        ],
        "numberOfBytes": "96"
      },
      "t_uint256": {
        "encoding": "inplace",
        "label": "uint256",
        "numberOfBytes": "32"
      },
      "t_uint64": {
        "encoding": "inplace",
        "label": "uint64",
        "numberOfBytes": "8"
      },
      "t_userDefinedValueType(euint256)41057": {
        "encoding": "inplace",
        "label": "euint256",
        "numberOfBytes": "32"
      },
      "t_userDefinedValueType(euint32)41001": {
        "encoding": "inplace",
        "label": "euint32",
        "numberOfBytes": "32"
      }
    }
  }
}